{
  "contractName": "DualDividendToken",
  "abi": [
    {
      "inputs": [
        {
          "internalType": "address",
          "name": "_tokenA",
          "type": "address"
        },
        {
          "internalType": "address",
          "name": "_tokenB",
          "type": "address"
        },
        {
          "internalType": "string",
          "name": "_name",
          "type": "string"
        },
        {
          "internalType": "string",
          "name": "_symbol",
          "type": "string"
        }
      ],
      "stateMutability": "nonpayable",
      "type": "constructor"
    },
    {
      "anonymous": false,
      "inputs": [
        {
          "indexed": true,
          "internalType": "address",
          "name": "owner",
          "type": "address"
        },
        {
          "indexed": true,
          "internalType": "address",
          "name": "spender",
          "type": "address"
        },
        {
          "indexed": false,
          "internalType": "uint256",
          "name": "value",
          "type": "uint256"
        }
      ],
      "name": "Approval",
      "type": "event"
    },
    {
      "anonymous": false,
      "inputs": [
        {
          "indexed": true,
          "internalType": "address",
          "name": "from",
          "type": "address"
        },
        {
          "indexed": true,
          "internalType": "address",
          "name": "to",
          "type": "address"
        },
        {
          "indexed": false,
          "internalType": "uint256",
          "name": "value",
          "type": "uint256"
        }
      ],
      "name": "Transfer",
      "type": "event"
    },
    {
      "inputs": [
        {
          "internalType": "address",
          "name": "owner",
          "type": "address"
        },
        {
          "internalType": "address",
          "name": "spender",
          "type": "address"
        }
      ],
      "name": "allowance",
      "outputs": [
        {
          "internalType": "uint256",
          "name": "",
          "type": "uint256"
        }
      ],
      "stateMutability": "view",
      "type": "function"
    },
    {
      "inputs": [
        {
          "internalType": "address",
          "name": "spender",
          "type": "address"
        },
        {
          "internalType": "uint256",
          "name": "amount",
          "type": "uint256"
        }
      ],
      "name": "approve",
      "outputs": [
        {
          "internalType": "bool",
          "name": "",
          "type": "bool"
        }
      ],
      "stateMutability": "nonpayable",
      "type": "function"
    },
    {
      "inputs": [
        {
          "internalType": "address",
          "name": "account",
          "type": "address"
        }
      ],
      "name": "balanceOf",
      "outputs": [
        {
          "internalType": "uint256",
          "name": "",
          "type": "uint256"
        }
      ],
      "stateMutability": "view",
      "type": "function"
    },
    {
      "inputs": [],
      "name": "decimals",
      "outputs": [
        {
          "internalType": "uint8",
          "name": "",
          "type": "uint8"
        }
      ],
      "stateMutability": "view",
      "type": "function"
    },
    {
      "inputs": [
        {
          "internalType": "address",
          "name": "spender",
          "type": "address"
        },
        {
          "internalType": "uint256",
          "name": "subtractedValue",
          "type": "uint256"
        }
      ],
      "name": "decreaseAllowance",
      "outputs": [
        {
          "internalType": "bool",
          "name": "",
          "type": "bool"
        }
      ],
      "stateMutability": "nonpayable",
      "type": "function"
    },
    {
      "inputs": [
        {
          "internalType": "address",
          "name": "spender",
          "type": "address"
        },
        {
          "internalType": "uint256",
          "name": "addedValue",
          "type": "uint256"
        }
      ],
      "name": "increaseAllowance",
      "outputs": [
        {
          "internalType": "bool",
          "name": "",
          "type": "bool"
        }
      ],
      "stateMutability": "nonpayable",
      "type": "function"
    },
    {
      "inputs": [],
      "name": "name",
      "outputs": [
        {
          "internalType": "string",
          "name": "",
          "type": "string"
        }
      ],
      "stateMutability": "view",
      "type": "function"
    },
    {
      "inputs": [],
      "name": "symbol",
      "outputs": [
        {
          "internalType": "string",
          "name": "",
          "type": "string"
        }
      ],
      "stateMutability": "view",
      "type": "function"
    },
    {
      "inputs": [],
      "name": "totalSupply",
      "outputs": [
        {
          "internalType": "uint256",
          "name": "",
          "type": "uint256"
        }
      ],
      "stateMutability": "view",
      "type": "function"
    },
    {
      "inputs": [
        {
          "internalType": "address",
          "name": "to",
          "type": "address"
        },
        {
          "internalType": "uint256",
          "name": "amount",
          "type": "uint256"
        }
      ],
      "name": "transfer",
      "outputs": [
        {
          "internalType": "bool",
          "name": "",
          "type": "bool"
        }
      ],
      "stateMutability": "nonpayable",
      "type": "function"
    },
    {
      "inputs": [
        {
          "internalType": "address",
          "name": "from",
          "type": "address"
        },
        {
          "internalType": "address",
          "name": "to",
          "type": "address"
        },
        {
          "internalType": "uint256",
          "name": "amount",
          "type": "uint256"
        }
      ],
      "name": "transferFrom",
      "outputs": [
        {
          "internalType": "bool",
          "name": "",
          "type": "bool"
        }
      ],
      "stateMutability": "nonpayable",
      "type": "function"
    },
    {
      "inputs": [],
      "name": "payoutDividends",
      "outputs": [],
      "stateMutability": "nonpayable",
      "type": "function"
    },
    {
      "inputs": [],
      "name": "getAndUpdateDividends",
      "outputs": [
        {
          "internalType": "uint256",
          "name": "",
          "type": "uint256"
        },
        {
          "internalType": "uint256",
          "name": "",
          "type": "uint256"
        }
      ],
      "stateMutability": "nonpayable",
      "type": "function"
    },
    {
      "inputs": [],
      "name": "getDividends",
      "outputs": [
        {
          "internalType": "uint256",
          "name": "",
          "type": "uint256"
        },
        {
          "internalType": "uint256",
          "name": "",
          "type": "uint256"
        }
      ],
      "stateMutability": "view",
      "type": "function"
    }
  ],
  "bytecode": "0x60c06040523480156200001157600080fd5b50604051620010ce380380620010ce833981016040819052620000349162000152565b8181600362000044838262000271565b50600462000053828262000271565b5050506001600160a01b0393841660805250501660a0526200033d565b80516001600160a01b03811681146200008857600080fd5b919050565b634e487b7160e01b600052604160045260246000fd5b600082601f830112620000b557600080fd5b81516001600160401b0380821115620000d257620000d26200008d565b604051601f8301601f19908116603f01168101908282118183101715620000fd57620000fd6200008d565b816040528381526020925086838588010111156200011a57600080fd5b600091505b838210156200013e57858201830151818301840152908201906200011f565b600093810190920192909252949350505050565b600080600080608085870312156200016957600080fd5b620001748562000070565b9350620001846020860162000070565b60408601519093506001600160401b0380821115620001a257600080fd5b620001b088838901620000a3565b93506060870151915080821115620001c757600080fd5b50620001d687828801620000a3565b91505092959194509250565b600181811c90821680620001f757607f821691505b6020821081036200021857634e487b7160e01b600052602260045260246000fd5b50919050565b601f8211156200026c57600081815260208120601f850160051c81016020861015620002475750805b601f850160051c820191505b81811015620002685782815560010162000253565b5050505b505050565b81516001600160401b038111156200028d576200028d6200008d565b620002a5816200029e8454620001e2565b846200021e565b602080601f831160018114620002dd5760008415620002c45750858301515b600019600386901b1c1916600185901b17855562000268565b600085815260208120601f198616915b828110156200030e57888601518255948401946001909101908401620002ed565b50858210156200032d5787850151600019600388901b60f8161c191681555b5050505050600190811b01905550565b60805160a051610d6b620003636000396000610433015260006103a90152610d6b6000f3fe608060405234801561001057600080fd5b50600436106100ea5760003560e01c806370a082311161008c578063a457c2d711610066578063a457c2d7146101cf578063a9059cbb146101e2578063dd62ed3e146101f5578063ed442e141461022e57600080fd5b806370a082311461018157806395d89b41146101aa578063a0331c44146101b257600080fd5b806323b872dd116100c857806323b872dd14610142578063313ce56714610155578063395093511461016457806344b4d2791461017757600080fd5b806306fdde03146100ef578063095ea7b31461010d57806318160ddd14610130575b600080fd5b6100f761024a565b6040516101049190610b3f565b60405180910390f35b61012061011b366004610ba9565b6102dc565b6040519015158152602001610104565b6002545b604051908152602001610104565b610120610150366004610bd3565b6102f6565b60405160128152602001610104565b610120610172366004610ba9565b61031a565b61017f610359565b005b61013461018f366004610c0f565b6001600160a01b031660009081526020819052604090205490565b6100f76104ad565b6101ba6104bc565b60408051928352602083019190915201610104565b6101206101dd366004610ba9565b6104e5565b6101206101f0366004610ba9565b610594565b610134610203366004610c31565b6001600160a01b03918216600090815260016020908152604080832093909416825291909152205490565b33600090815260076020526040902080546001909101546101ba565b60606003805461025990610c64565b80601f016020809104026020016040519081016040528092919081815260200182805461028590610c64565b80156102d25780601f106102a7576101008083540402835291602001916102d2565b820191906000526020600020905b8154815290600101906020018083116102b557829003601f168201915b5050505050905090565b6000336102ea8185856105a2565b60019150505b92915050565b6000336103048582856106fa565b61030f85858561078c565b506001949350505050565b3360008181526001602090815260408083206001600160a01b03871684529091528120549091906102ea9082908690610354908790610cb4565b6105a2565b61036233610984565b3360008181526007602052604080822080546001820180549285905593909355905163a9059cbb60e01b815260048101939093526024830182905290916001600160a01b037f0000000000000000000000000000000000000000000000000000000000000000169063a9059cbb906044016020604051808303816000875af11580156103f2573d6000803e3d6000fd5b505050506040513d601f19601f820116820180604052508101906104169190610cc7565b5060405163a9059cbb60e01b8152336004820152602481018290527f00000000000000000000000000000000000000000000000000000000000000006001600160a01b03169063a9059cbb906044016020604051808303816000875af1158015610484573d6000803e3d6000fd5b505050506040513d601f19601f820116820180604052508101906104a89190610cc7565b505050565b60606004805461025990610c64565b6000806104c833610984565b505033600090815260076020526040902080546001909101549091565b3360008181526001602090815260408083206001600160a01b0387168452909152812054909190838110156105875760405162461bcd60e51b815260206004820152602560248201527f45524332303a2064656372656173656420616c6c6f77616e63652062656c6f7760448201527f207a65726f00000000000000000000000000000000000000000000000000000060648201526084015b60405180910390fd5b61030f82868684036105a2565b6000336102ea81858561078c565b6001600160a01b03831661061d5760405162461bcd60e51b8152602060048201526024808201527f45524332303a20617070726f76652066726f6d20746865207a65726f2061646460448201527f7265737300000000000000000000000000000000000000000000000000000000606482015260840161057e565b6001600160a01b0382166106995760405162461bcd60e51b815260206004820152602260248201527f45524332303a20617070726f766520746f20746865207a65726f20616464726560448201527f7373000000000000000000000000000000000000000000000000000000000000606482015260840161057e565b6001600160a01b0383811660008181526001602090815260408083209487168084529482529182902085905590518481527f8c5be1e5ebec7d5bd14f71427d1e84f3dd0314c0f7b2291e5b200ac8c7c3b925910160405180910390a3505050565b6001600160a01b03838116600090815260016020908152604080832093861683529290522054600019811461078657818110156107795760405162461bcd60e51b815260206004820152601d60248201527f45524332303a20696e73756666696369656e7420616c6c6f77616e6365000000604482015260640161057e565b61078684848484036105a2565b50505050565b6001600160a01b0383166108085760405162461bcd60e51b815260206004820152602560248201527f45524332303a207472616e736665722066726f6d20746865207a65726f20616460448201527f6472657373000000000000000000000000000000000000000000000000000000606482015260840161057e565b6001600160a01b0382166108845760405162461bcd60e51b815260206004820152602360248201527f45524332303a207472616e7366657220746f20746865207a65726f206164647260448201527f6573730000000000000000000000000000000000000000000000000000000000606482015260840161057e565b61088f838383610b0f565b6001600160a01b0383166000908152602081905260409020548181101561091e5760405162461bcd60e51b815260206004820152602660248201527f45524332303a207472616e7366657220616d6f756e742065786365656473206260448201527f616c616e63650000000000000000000000000000000000000000000000000000606482015260840161057e565b6001600160a01b03848116600081815260208181526040808320878703905593871680835291849020805487019055925185815290927fddf252ad1be2c89b69c2b068fc378daa952ba7f163c4a11628f55a4df523b3ef910160405180910390a3610786565b6001600160a01b0381166000908152600760205260408120600201546005546109ad9190610ce9565b6001600160a01b03831660009081526007602052604081206003015460065492935090916109db9190610ce9565b90506000678ac7230489e8000083610a08866001600160a01b031660009081526020819052604090205490565b610a129190610cfc565b610a1c9190610d13565b90506000678ac7230489e8000083610a49876001600160a01b031660009081526020819052604090205490565b610a539190610cfc565b610a5d9190610d13565b90508115610ab2576001600160a01b03851660009081526007602052604081208054849290610a8d908490610cb4565b90915550506005546001600160a01b0386166000908152600760205260409020600201555b8015610b08576001600160a01b03851660009081526007602052604081206001018054839290610ae3908490610cb4565b90915550506006546001600160a01b0386166000908152600760205260409020600301555b5050505050565b6001600160a01b03831615610b2757610b2783610984565b6001600160a01b038216156104a8576104a882610984565b600060208083528351808285015260005b81811015610b6c57858101830151858201604001528201610b50565b506000604082860101526040601f19601f8301168501019250505092915050565b80356001600160a01b0381168114610ba457600080fd5b919050565b60008060408385031215610bbc57600080fd5b610bc583610b8d565b946020939093013593505050565b600080600060608486031215610be857600080fd5b610bf184610b8d565b9250610bff60208501610b8d565b9150604084013590509250925092565b600060208284031215610c2157600080fd5b610c2a82610b8d565b9392505050565b60008060408385031215610c4457600080fd5b610c4d83610b8d565b9150610c5b60208401610b8d565b90509250929050565b600181811c90821680610c7857607f821691505b602082108103610c9857634e487b7160e01b600052602260045260246000fd5b50919050565b634e487b7160e01b600052601160045260246000fd5b808201808211156102f0576102f0610c9e565b600060208284031215610cd957600080fd5b81518015158114610c2a57600080fd5b818103818111156102f0576102f0610c9e565b80820281158282048414176102f0576102f0610c9e565b600082610d3057634e487b7160e01b600052601260045260246000fd5b50049056fea2646970667358221220a63bc3decf7c3d1f704a116b47f8d8b6c8063beecb2482dd9128a6ffd37563b164736f6c63430008130033",
  "immutableReferences": {
    "3450": [
      {
        "length": 32,
        "start": 937
      }
    ],
    "3453": [
      {
        "length": 32,
        "start": 1075
      }
    ]
  },
  "source": "// SPDX-License-Identifier: MIT\r\npragma solidity ^0.8.0;\r\n\r\nimport \"@openzeppelin/contracts/token/ERC20/ERC20.sol\";\r\nimport \"@openzeppelin/contracts/token/ERC20/IERC20.sol\";\r\n\r\n\r\n// A ERC20 token that yields dividends in 2 assets.\r\n// dividends can be distributed 2 assets (tokenA & tokenB)\r\n// it does not handle receiving of assets, for this simply call distributeDividendsA() and distributeDividendsB() at the location where dividens are received\r\n// TODO: account for rounding errors\r\ncontract DualDividendToken is ERC20 {\r\n    struct Account {\r\n        uint dividendsA;\r\n        uint dividendsB;\r\n        uint lastDividendsA;\r\n        uint lastDividendsB;\r\n    }\r\n\r\n    uint constant MULTIPLIER = 10e18;\r\n    IERC20 immutable tokenA;\r\n    IERC20 immutable tokenB;\r\n    uint totalDividendsA; // as percentages\r\n    uint totalDividendsB; // as percentages\r\n    mapping(address => Account) accounts;\r\n\r\n    constructor(address _tokenA, address _tokenB, string memory _name, string memory _symbol) ERC20(_name, _symbol) {\r\n        tokenA = IERC20(_tokenA);\r\n        tokenB = IERC20(_tokenB);\r\n    }\r\n\r\n    function payoutDividends() external {\r\n        updateDividends(msg.sender);\r\n        uint dividendsA = accounts[msg.sender].dividendsA;\r\n        uint dividendsB = accounts[msg.sender].dividendsB;\r\n        accounts[msg.sender].dividendsA = 0;\r\n        accounts[msg.sender].dividendsB = 0;\r\n        tokenA.transfer(msg.sender, dividendsA);\r\n        tokenB.transfer(msg.sender, dividendsB);\r\n    }\r\n\r\n    function getAndUpdateDividends() external returns(uint, uint) {\r\n        updateDividends(msg.sender);\r\n        return (accounts[msg.sender].dividendsA, accounts[msg.sender].dividendsB);\r\n    }\r\n\r\n    function getDividends() external view returns(uint, uint) {\r\n        return (accounts[msg.sender].dividendsA, accounts[msg.sender].dividendsB);\r\n    }\r\n\r\n    function distributeDividendsA(uint amount) internal {\r\n        totalDividendsA += (amount * MULTIPLIER) / totalSupply();\r\n    }\r\n\r\n    function distributeDividendsB(uint amount) internal {\r\n        totalDividendsB += (amount * MULTIPLIER) / totalSupply();\r\n    }\r\n\r\n    function updateDividends(address account) internal {\r\n        uint newDividendsA = totalDividendsA - accounts[account].lastDividendsA;\r\n        uint newDividendsB = totalDividendsB - accounts[account].lastDividendsB;\r\n        uint owingDividendsA = (balanceOf(account) * newDividendsA) / MULTIPLIER;\r\n        uint owingDividendsB = (balanceOf(account) * newDividendsB) / MULTIPLIER;\r\n        if (owingDividendsA > 0) {\r\n            accounts[account].dividendsA += owingDividendsA;\r\n            accounts[account].lastDividendsA = totalDividendsA;\r\n        }\r\n        if (owingDividendsB > 0) {\r\n            accounts[account].dividendsB += owingDividendsB;\r\n            accounts[account].lastDividendsB = totalDividendsB;\r\n        }\r\n    }\r\n\t\r\n    // assmuption: shares of a accounts token stays the same during adding up their dividends\r\n    // => update dividends if shares of account change\r\n    function _beforeTokenTransfer(address from, address to, uint256 amount) internal virtual override {\r\n        super._beforeTokenTransfer(from, to, amount);\r\n        if (from != address(0)) {\r\n            updateDividends(from);\r\n        }\r\n        if (to != address(0)) {\r\n            updateDividends(to);\r\n        }\r\n    }\r\n}",
  "sourcePath": "C:\\Users\\lukas\\Documents\\git\\swaparoo\\smart-contracts\\contracts\\DualDividendToken.sol",
  "compiler": {
    "name": "solc",
    "version": "0.8.19+commit.7dd6d404.Emscripten.clang"
  },
  "schemaVersion": "3.4.14",
  "updatedAt": "2023-07-10T21:52:45.500Z",
  "devdoc": {
    "events": {
      "Approval(address,address,uint256)": {
        "details": "Emitted when the allowance of a `spender` for an `owner` is set by a call to {approve}. `value` is the new allowance."
      },
      "Transfer(address,address,uint256)": {
        "details": "Emitted when `value` tokens are moved from one account (`from`) to another (`to`). Note that `value` may be zero."
      }
    },
    "kind": "dev",
    "methods": {
      "allowance(address,address)": {
        "details": "See {IERC20-allowance}."
      },
      "approve(address,uint256)": {
        "details": "See {IERC20-approve}. NOTE: If `amount` is the maximum `uint256`, the allowance is not updated on `transferFrom`. This is semantically equivalent to an infinite approval. Requirements: - `spender` cannot be the zero address."
      },
      "balanceOf(address)": {
        "details": "See {IERC20-balanceOf}."
      },
      "decimals()": {
        "details": "Returns the number of decimals used to get its user representation. For example, if `decimals` equals `2`, a balance of `505` tokens should be displayed to a user as `5.05` (`505 / 10 ** 2`). Tokens usually opt for a value of 18, imitating the relationship between Ether and Wei. This is the default value returned by this function, unless it's overridden. NOTE: This information is only used for _display_ purposes: it in no way affects any of the arithmetic of the contract, including {IERC20-balanceOf} and {IERC20-transfer}."
      },
      "decreaseAllowance(address,uint256)": {
        "details": "Atomically decreases the allowance granted to `spender` by the caller. This is an alternative to {approve} that can be used as a mitigation for problems described in {IERC20-approve}. Emits an {Approval} event indicating the updated allowance. Requirements: - `spender` cannot be the zero address. - `spender` must have allowance for the caller of at least `subtractedValue`."
      },
      "increaseAllowance(address,uint256)": {
        "details": "Atomically increases the allowance granted to `spender` by the caller. This is an alternative to {approve} that can be used as a mitigation for problems described in {IERC20-approve}. Emits an {Approval} event indicating the updated allowance. Requirements: - `spender` cannot be the zero address."
      },
      "name()": {
        "details": "Returns the name of the token."
      },
      "symbol()": {
        "details": "Returns the symbol of the token, usually a shorter version of the name."
      },
      "totalSupply()": {
        "details": "See {IERC20-totalSupply}."
      },
      "transfer(address,uint256)": {
        "details": "See {IERC20-transfer}. Requirements: - `to` cannot be the zero address. - the caller must have a balance of at least `amount`."
      },
      "transferFrom(address,address,uint256)": {
        "details": "See {IERC20-transferFrom}. Emits an {Approval} event indicating the updated allowance. This is not required by the EIP. See the note at the beginning of {ERC20}. NOTE: Does not update the allowance if the current allowance is the maximum `uint256`. Requirements: - `from` and `to` cannot be the zero address. - `from` must have a balance of at least `amount`. - the caller must have allowance for ``from``'s tokens of at least `amount`."
      }
    },
    "version": 1
  },
  "userdoc": {
    "kind": "user",
    "methods": {},
    "version": 1
  }
}