{
  "contractName": "SwaparooPool",
  "abi": [
    {
      "inputs": [
        {
          "internalType": "address",
          "name": "_tokenA",
          "type": "address"
        },
        {
          "internalType": "address",
          "name": "_tokenB",
          "type": "address"
        },
        {
          "internalType": "string",
          "name": "_liquidityTokenName",
          "type": "string"
        },
        {
          "internalType": "string",
          "name": "_liquidityTokenSymbol",
          "type": "string"
        }
      ],
      "stateMutability": "nonpayable",
      "type": "constructor"
    },
    {
      "anonymous": false,
      "inputs": [
        {
          "indexed": true,
          "internalType": "address",
          "name": "owner",
          "type": "address"
        },
        {
          "indexed": true,
          "internalType": "address",
          "name": "spender",
          "type": "address"
        },
        {
          "indexed": false,
          "internalType": "uint256",
          "name": "value",
          "type": "uint256"
        }
      ],
      "name": "Approval",
      "type": "event"
    },
    {
      "anonymous": false,
      "inputs": [
        {
          "indexed": false,
          "internalType": "address",
          "name": "liquidityProvider",
          "type": "address"
        },
        {
          "indexed": false,
          "internalType": "uint256",
          "name": "amountA",
          "type": "uint256"
        },
        {
          "indexed": false,
          "internalType": "uint256",
          "name": "amountB",
          "type": "uint256"
        },
        {
          "indexed": false,
          "internalType": "uint256",
          "name": "addedShares",
          "type": "uint256"
        }
      ],
      "name": "LiquidityProvided",
      "type": "event"
    },
    {
      "anonymous": false,
      "inputs": [
        {
          "indexed": false,
          "internalType": "address",
          "name": "liquidityProvider",
          "type": "address"
        },
        {
          "indexed": false,
          "internalType": "uint256",
          "name": "removedShares",
          "type": "uint256"
        },
        {
          "indexed": false,
          "internalType": "uint256",
          "name": "amountA",
          "type": "uint256"
        },
        {
          "indexed": false,
          "internalType": "uint256",
          "name": "amountB",
          "type": "uint256"
        }
      ],
      "name": "LiquidityRemoved",
      "type": "event"
    },
    {
      "anonymous": false,
      "inputs": [
        {
          "indexed": false,
          "internalType": "address",
          "name": "user",
          "type": "address"
        },
        {
          "indexed": false,
          "internalType": "uint256",
          "name": "amountIn",
          "type": "uint256"
        },
        {
          "indexed": false,
          "internalType": "address",
          "name": "tokenIn",
          "type": "address"
        },
        {
          "indexed": false,
          "internalType": "uint256",
          "name": "amountOut",
          "type": "uint256"
        },
        {
          "indexed": false,
          "internalType": "address",
          "name": "tokenOut",
          "type": "address"
        }
      ],
      "name": "Swap",
      "type": "event"
    },
    {
      "anonymous": false,
      "inputs": [
        {
          "indexed": true,
          "internalType": "address",
          "name": "from",
          "type": "address"
        },
        {
          "indexed": true,
          "internalType": "address",
          "name": "to",
          "type": "address"
        },
        {
          "indexed": false,
          "internalType": "uint256",
          "name": "value",
          "type": "uint256"
        }
      ],
      "name": "Transfer",
      "type": "event"
    },
    {
      "inputs": [],
      "name": "FEE",
      "outputs": [
        {
          "internalType": "uint256",
          "name": "",
          "type": "uint256"
        }
      ],
      "stateMutability": "view",
      "type": "function"
    },
    {
      "inputs": [],
      "name": "FEE_MULITPLIER",
      "outputs": [
        {
          "internalType": "uint256",
          "name": "",
          "type": "uint256"
        }
      ],
      "stateMutability": "view",
      "type": "function"
    },
    {
      "inputs": [
        {
          "internalType": "address",
          "name": "owner",
          "type": "address"
        },
        {
          "internalType": "address",
          "name": "spender",
          "type": "address"
        }
      ],
      "name": "allowance",
      "outputs": [
        {
          "internalType": "uint256",
          "name": "",
          "type": "uint256"
        }
      ],
      "stateMutability": "view",
      "type": "function"
    },
    {
      "inputs": [
        {
          "internalType": "address",
          "name": "spender",
          "type": "address"
        },
        {
          "internalType": "uint256",
          "name": "amount",
          "type": "uint256"
        }
      ],
      "name": "approve",
      "outputs": [
        {
          "internalType": "bool",
          "name": "",
          "type": "bool"
        }
      ],
      "stateMutability": "nonpayable",
      "type": "function"
    },
    {
      "inputs": [
        {
          "internalType": "address",
          "name": "account",
          "type": "address"
        }
      ],
      "name": "balanceOf",
      "outputs": [
        {
          "internalType": "uint256",
          "name": "",
          "type": "uint256"
        }
      ],
      "stateMutability": "view",
      "type": "function"
    },
    {
      "inputs": [],
      "name": "decimals",
      "outputs": [
        {
          "internalType": "uint8",
          "name": "",
          "type": "uint8"
        }
      ],
      "stateMutability": "view",
      "type": "function"
    },
    {
      "inputs": [
        {
          "internalType": "address",
          "name": "spender",
          "type": "address"
        },
        {
          "internalType": "uint256",
          "name": "subtractedValue",
          "type": "uint256"
        }
      ],
      "name": "decreaseAllowance",
      "outputs": [
        {
          "internalType": "bool",
          "name": "",
          "type": "bool"
        }
      ],
      "stateMutability": "nonpayable",
      "type": "function"
    },
    {
      "inputs": [],
      "name": "getAndUpdateDividends",
      "outputs": [
        {
          "internalType": "uint256",
          "name": "",
          "type": "uint256"
        },
        {
          "internalType": "uint256",
          "name": "",
          "type": "uint256"
        }
      ],
      "stateMutability": "nonpayable",
      "type": "function"
    },
    {
      "inputs": [],
      "name": "getDividends",
      "outputs": [
        {
          "internalType": "uint256",
          "name": "",
          "type": "uint256"
        },
        {
          "internalType": "uint256",
          "name": "",
          "type": "uint256"
        }
      ],
      "stateMutability": "view",
      "type": "function"
    },
    {
      "inputs": [
        {
          "internalType": "address",
          "name": "spender",
          "type": "address"
        },
        {
          "internalType": "uint256",
          "name": "addedValue",
          "type": "uint256"
        }
      ],
      "name": "increaseAllowance",
      "outputs": [
        {
          "internalType": "bool",
          "name": "",
          "type": "bool"
        }
      ],
      "stateMutability": "nonpayable",
      "type": "function"
    },
    {
      "inputs": [],
      "name": "name",
      "outputs": [
        {
          "internalType": "string",
          "name": "",
          "type": "string"
        }
      ],
      "stateMutability": "view",
      "type": "function"
    },
    {
      "inputs": [],
      "name": "payoutDividends",
      "outputs": [],
      "stateMutability": "nonpayable",
      "type": "function"
    },
    {
      "inputs": [],
      "name": "reserveA",
      "outputs": [
        {
          "internalType": "uint256",
          "name": "",
          "type": "uint256"
        }
      ],
      "stateMutability": "view",
      "type": "function"
    },
    {
      "inputs": [],
      "name": "reserveB",
      "outputs": [
        {
          "internalType": "uint256",
          "name": "",
          "type": "uint256"
        }
      ],
      "stateMutability": "view",
      "type": "function"
    },
    {
      "inputs": [],
      "name": "symbol",
      "outputs": [
        {
          "internalType": "string",
          "name": "",
          "type": "string"
        }
      ],
      "stateMutability": "view",
      "type": "function"
    },
    {
      "inputs": [],
      "name": "totalSupply",
      "outputs": [
        {
          "internalType": "uint256",
          "name": "",
          "type": "uint256"
        }
      ],
      "stateMutability": "view",
      "type": "function"
    },
    {
      "inputs": [
        {
          "internalType": "address",
          "name": "to",
          "type": "address"
        },
        {
          "internalType": "uint256",
          "name": "amount",
          "type": "uint256"
        }
      ],
      "name": "transfer",
      "outputs": [
        {
          "internalType": "bool",
          "name": "",
          "type": "bool"
        }
      ],
      "stateMutability": "nonpayable",
      "type": "function"
    },
    {
      "inputs": [
        {
          "internalType": "address",
          "name": "from",
          "type": "address"
        },
        {
          "internalType": "address",
          "name": "to",
          "type": "address"
        },
        {
          "internalType": "uint256",
          "name": "amount",
          "type": "uint256"
        }
      ],
      "name": "transferFrom",
      "outputs": [
        {
          "internalType": "bool",
          "name": "",
          "type": "bool"
        }
      ],
      "stateMutability": "nonpayable",
      "type": "function"
    },
    {
      "inputs": [],
      "name": "getReserves",
      "outputs": [
        {
          "internalType": "uint256",
          "name": "",
          "type": "uint256"
        },
        {
          "internalType": "uint256",
          "name": "",
          "type": "uint256"
        }
      ],
      "stateMutability": "view",
      "type": "function"
    },
    {
      "inputs": [],
      "name": "getTokenAddresses",
      "outputs": [
        {
          "internalType": "address",
          "name": "",
          "type": "address"
        },
        {
          "internalType": "address",
          "name": "",
          "type": "address"
        }
      ],
      "stateMutability": "view",
      "type": "function"
    },
    {
      "inputs": [],
      "name": "getK",
      "outputs": [
        {
          "internalType": "uint256",
          "name": "",
          "type": "uint256"
        }
      ],
      "stateMutability": "view",
      "type": "function"
    },
    {
      "inputs": [
        {
          "internalType": "uint256",
          "name": "amountA",
          "type": "uint256"
        },
        {
          "internalType": "uint256",
          "name": "amountB",
          "type": "uint256"
        }
      ],
      "name": "provideLiquidity",
      "outputs": [],
      "stateMutability": "nonpayable",
      "type": "function"
    },
    {
      "inputs": [
        {
          "internalType": "uint256",
          "name": "shares",
          "type": "uint256"
        }
      ],
      "name": "removeLiquidity",
      "outputs": [],
      "stateMutability": "nonpayable",
      "type": "function"
    },
    {
      "inputs": [
        {
          "internalType": "uint256",
          "name": "amountIn",
          "type": "uint256"
        },
        {
          "internalType": "address",
          "name": "_tokenIn",
          "type": "address"
        }
      ],
      "name": "swap",
      "outputs": [],
      "stateMutability": "nonpayable",
      "type": "function"
    }
  ],
  "bytecode": "0x60c0604052600060085560006009556000600a553480156200002057600080fd5b50604051620022fe380380620022fe8339810160408190526200004391620002c1565b8383838381816003620000578382620003e0565b506004620000668282620003e0565b5050506001600160a01b039384166080525050811660a0528416158015906200009757506001600160a01b03831615155b620000f55760405162461bcd60e51b815260206004820152602360248201527f546f6b656e732063616e6e6f74206861766520746865207a65726f206164647260448201526265737360e81b60648201526084015b60405180910390fd5b6001600160a01b0384163b151580156200011857506001600160a01b0383163b15155b620001665760405162461bcd60e51b815260206004820152601860248201527f546f6b656e73206d75737420626520636f6e74726163747300000000000000006044820152606401620000ec565b826001600160a01b0316846001600160a01b031603620001d55760405162461bcd60e51b8152602060048201526024808201527f546f6b656e41206d75737420626520646966666572656e742066726f6d20546f60448201526335b2b72160e11b6064820152608401620000ec565b50505050620004ac565b80516001600160a01b0381168114620001f757600080fd5b919050565b634e487b7160e01b600052604160045260246000fd5b600082601f8301126200022457600080fd5b81516001600160401b0380821115620002415762000241620001fc565b604051601f8301601f19908116603f011681019082821181831017156200026c576200026c620001fc565b816040528381526020925086838588010111156200028957600080fd5b600091505b83821015620002ad57858201830151818301840152908201906200028e565b600093810190920192909252949350505050565b60008060008060808587031215620002d857600080fd5b620002e385620001df565b9350620002f360208601620001df565b60408601519093506001600160401b03808211156200031157600080fd5b6200031f8883890162000212565b935060608701519150808211156200033657600080fd5b50620003458782880162000212565b91505092959194509250565b600181811c908216806200036657607f821691505b6020821081036200038757634e487b7160e01b600052602260045260246000fd5b50919050565b601f821115620003db57600081815260208120601f850160051c81016020861015620003b65750805b601f850160051c820191505b81811015620003d757828155600101620003c2565b5050505b505050565b81516001600160401b03811115620003fc57620003fc620001fc565b62000414816200040d845462000351565b846200038d565b602080601f8311600181146200044c5760008415620004335750858301515b600019600386901b1c1916600185901b178555620003d7565b600085815260208120601f198616915b828110156200047d578886015182559484019460019091019084016200045c565b50858210156200049c5787850151600019600388901b60f8161c191681555b5050505050600190811b01905550565b60805160a051611db56200054960003960008181610395015281816105a90152818161084701528181610ab701528181610cd301528181610dbb0152818161100801526110a10152600081816103700152818161051f015281816107af01528181610a2501528181610c9801528181610d5c01528181610d9501528181610de101528181610e2a01528181610fa8015261106d0152611db56000f3fe608060405234801561001057600080fd5b50600436106101975760003560e01c806395d89b41116100e3578063d3986f081161008c578063ed442e1411610066578063ed442e141461033e578063ee39e7a01461035a578063ee8c24b81461036257600080fd5b8063d3986f08146102e9578063dc5fa6c5146102fc578063dd62ed3e1461030557600080fd5b8063a457c2d7116100bd578063a457c2d7146102bb578063a9059cbb146102ce578063c57981b5146102e157600080fd5b806395d89b41146102985780639c8f9f23146102a0578063a0331c44146102b357600080fd5b806323b872dd1161014557806344b4d2791161011f57806344b4d2791461025257806370a082311461025c5780637a16af7f1461028557600080fd5b806323b872dd1461021d578063313ce56714610230578063395093511461023f57600080fd5b8063095ea7b311610176578063095ea7b3146101e957806318160ddd1461020c57806319e36f3b1461021457600080fd5b8062868bc51461019c57806306fdde03146101b85780630902f1ac146101cd575b600080fd5b6101a561271081565b6040519081526020015b60405180910390f35b6101c06103c0565b6040516101af9190611b1c565b6008546009545b604080519283526020830191909152016101af565b6101fc6101f7366004611b86565b610452565b60405190151581526020016101af565b6002546101a5565b6101a560095481565b6101fc61022b366004611bb0565b61046c565b604051601281526020016101af565b6101fc61024d366004611b86565b610490565b61025a6104cf565b005b6101a561026a366004611bec565b6001600160a01b031660009081526020819052604090205490565b61025a610293366004611c07565b610623565b6101c061094e565b61025a6102ae366004611c29565b61095d565b6101d4610bb5565b6101fc6102c9366004611b86565b610bde565b6101fc6102dc366004611b86565b610c88565b6101a5601e81565b61025a6102f7366004611c42565b610c96565b6101a560085481565b6101a5610313366004611c6e565b6001600160a01b03918216600090815260016020908152604080832093909416825291909152205490565b33600090815260076020526040902080546001909101546101d4565b600a546101a5565b604080516001600160a01b037f0000000000000000000000000000000000000000000000000000000000000000811682527f0000000000000000000000000000000000000000000000000000000000000000166020820152016101af565b6060600380546103cf90611c98565b80601f01602080910402602001604051908101604052809291908181526020018280546103fb90611c98565b80156104485780601f1061041d57610100808354040283529160200191610448565b820191906000526020600020905b81548152906001019060200180831161042b57829003601f168201915b5050505050905090565b600033610460818585611143565b60019150505b92915050565b60003361047a85828561129b565b61048585858561132d565b506001949350505050565b3360008181526001602090815260408083206001600160a01b038716845290915281205490919061046090829086906104ca908790611ce8565b611143565b6104d833611525565b3360008181526007602052604080822080546001820180549285905593909355905163a9059cbb60e01b815260048101939093526024830182905290916001600160a01b037f0000000000000000000000000000000000000000000000000000000000000000169063a9059cbb906044016020604051808303816000875af1158015610568573d6000803e3d6000fd5b505050506040513d601f19601f8201168201806040525081019061058c9190611cfb565b5060405163a9059cbb60e01b8152336004820152602481018290527f00000000000000000000000000000000000000000000000000000000000000006001600160a01b03169063a9059cbb906044016020604051808303816000875af11580156105fa573d6000803e3d6000fd5b505050506040513d601f19601f8201168201806040525081019061061e9190611cfb565b505050565b6000821180156106335750600081115b6106aa5760405162461bcd60e51b815260206004820152602760248201527f4e756d626572206f6620746f6b656e73206d757374206265206772656174657260448201527f207468616e20300000000000000000000000000000000000000000000000000060648201526084015b60405180910390fd5b6000806106b660025490565b111561076e57826009546106ca9190611d1d565b826008546106d89190611d1d565b146107255760405162461bcd60e51b815260206004820152601060248201527f57726f6e672070726f706f7274696f6e0000000000000000000000000000000060448201526064016106a1565b61076760085461073460025490565b61073e9086611d1d565b6107489190611d4a565b6009546002546107589086611d1d565b6107629190611d4a565b6116b0565b9050610783565b61078061077b8385611d1d565b6116c8565b90505b61078d33826117b0565b6040516323b872dd60e01b8152336004820152306024820152604481018490527f00000000000000000000000000000000000000000000000000000000000000006001600160a01b0316906323b872dd906064016020604051808303816000875af1158015610800573d6000803e3d6000fd5b505050506040513d601f19601f820116820180604052508101906108249190611cfb565b506040516323b872dd60e01b8152336004820152306024820152604481018390527f00000000000000000000000000000000000000000000000000000000000000006001600160a01b0316906323b872dd906064016020604051808303816000875af1158015610898573d6000803e3d6000fd5b505050506040513d601f19601f820116820180604052508101906108bc9190611cfb565b5082600860008282546108cf9190611ce8565b9250508190555081600960008282546108e89190611ce8565b90915550506009546008546108fd9190611d1d565b600a556040805133815260208101859052908101839052606081018290527f3bca7014f4c0ccc8016338c79f4c00e82068dbadaf4f01ca5449040fdd39f500906080015b60405180910390a1505050565b6060600480546103cf90611c98565b600061096860025490565b116109b55760405162461bcd60e51b815260206004820152600c60248201527f4e6f206c6971756964697479000000000000000000000000000000000000000060448201526064016106a1565b60006109c060025490565b826008546109ce9190611d1d565b6109d89190611d4a565b905060006109e560025490565b836009546109f39190611d1d565b6109fd9190611d4a565b9050610a09338461187b565b60405163a9059cbb60e01b8152336004820152602481018390527f00000000000000000000000000000000000000000000000000000000000000006001600160a01b03169063a9059cbb906044016020604051808303816000875af1158015610a76573d6000803e3d6000fd5b505050506040513d601f19601f82011682018060405250810190610a9a9190611cfb565b5060405163a9059cbb60e01b8152336004820152602481018290527f00000000000000000000000000000000000000000000000000000000000000006001600160a01b03169063a9059cbb906044016020604051808303816000875af1158015610b08573d6000803e3d6000fd5b505050506040513d601f19601f82011682018060405250810190610b2c9190611cfb565b508160086000828254610b3f9190611d6c565b925050819055508060096000828254610b589190611d6c565b9091555050600954600854610b6d9190611d1d565b600a556040805133815260208101859052908101839052606081018290527f1dc8bb69df2b8e91fbdcbfcf93d951b3f0000f085a95fe3f7946d6161439245d90608001610941565b600080610bc133611525565b505033600090815260076020526040902080546001909101549091565b3360008181526001602090815260408083206001600160a01b038716845290915281205490919083811015610c7b5760405162461bcd60e51b815260206004820152602560248201527f45524332303a2064656372656173656420616c6c6f77616e63652062656c6f7760448201527f207a65726f00000000000000000000000000000000000000000000000000000060648201526084016106a1565b6104858286868403611143565b60003361046081858561132d565b7f00000000000000000000000000000000000000000000000000000000000000006001600160a01b0316816001600160a01b03161480610d0757507f00000000000000000000000000000000000000000000000000000000000000006001600160a01b0316816001600160a01b0316145b610d535760405162461bcd60e51b815260206004820152601360248201527f546f6b656e206e6f7420737570706f727465640000000000000000000000000060448201526064016106a1565b600081905060007f00000000000000000000000000000000000000000000000000000000000000006001600160a01b0316826001600160a01b031614610db9577f0000000000000000000000000000000000000000000000000000000000000000610ddb565b7f00000000000000000000000000000000000000000000000000000000000000005b905060007f00000000000000000000000000000000000000000000000000000000000000006001600160a01b0316836001600160a01b031614610e2057600954610e24565b6008545b905060007f00000000000000000000000000000000000000000000000000000000000000006001600160a01b0316846001600160a01b031614610e6957600854610e6d565b6009545b90506000612710610e7f601e89611d1d565b610e899190611d4a565b90506000610e978289611d6c565b90506000610ea58286611ce8565b610eaf8386611d1d565b610eb99190611d4a565b6040516323b872dd60e01b8152336004820152306024820152604481018b90529091506001600160a01b038816906323b872dd906064016020604051808303816000875af1158015610f0f573d6000803e3d6000fd5b505050506040513d601f19601f82011682018060405250810190610f339190611cfb565b5060405163a9059cbb60e01b8152336004820152602481018290526001600160a01b0387169063a9059cbb906044016020604051808303816000875af1158015610f81573d6000803e3d6000fd5b505050506040513d601f19601f82011682018060405250810190610fa59190611cfb565b507f00000000000000000000000000000000000000000000000000000000000000006001600160a01b0316876001600160a01b031614610ff25780600854610fed9190611d6c565b611000565b816008546110009190611ce8565b6008819055507f00000000000000000000000000000000000000000000000000000000000000006001600160a01b0316876001600160a01b031614611052578060095461104d9190611d6c565b611060565b816009546110609190611ce8565b6009556001600160a01b037f000000000000000000000000000000000000000000000000000000000000000081169088160361109f5761109f836119f0565b7f00000000000000000000000000000000000000000000000000000000000000006001600160a01b0316876001600160a01b0316036110e1576110e183611a28565b60408051338152602081018b90526001600160a01b0389811682840152606082018490528816608082015290517f24043855bfbfea0ccea141e5a73d7116bf0bfe083ea900a791f4b407ff03e5259181900360a00190a1505050505050505050565b6001600160a01b0383166111be5760405162461bcd60e51b8152602060048201526024808201527f45524332303a20617070726f76652066726f6d20746865207a65726f2061646460448201527f726573730000000000000000000000000000000000000000000000000000000060648201526084016106a1565b6001600160a01b03821661123a5760405162461bcd60e51b815260206004820152602260248201527f45524332303a20617070726f766520746f20746865207a65726f20616464726560448201527f737300000000000000000000000000000000000000000000000000000000000060648201526084016106a1565b6001600160a01b0383811660008181526001602090815260408083209487168084529482529182902085905590518481527f8c5be1e5ebec7d5bd14f71427d1e84f3dd0314c0f7b2291e5b200ac8c7c3b925910160405180910390a3505050565b6001600160a01b038381166000908152600160209081526040808320938616835292905220546000198114611327578181101561131a5760405162461bcd60e51b815260206004820152601d60248201527f45524332303a20696e73756666696369656e7420616c6c6f77616e636500000060448201526064016106a1565b6113278484848403611143565b50505050565b6001600160a01b0383166113a95760405162461bcd60e51b815260206004820152602560248201527f45524332303a207472616e736665722066726f6d20746865207a65726f20616460448201527f647265737300000000000000000000000000000000000000000000000000000060648201526084016106a1565b6001600160a01b0382166114255760405162461bcd60e51b815260206004820152602360248201527f45524332303a207472616e7366657220746f20746865207a65726f206164647260448201527f657373000000000000000000000000000000000000000000000000000000000060648201526084016106a1565b611430838383611a58565b6001600160a01b038316600090815260208190526040902054818110156114bf5760405162461bcd60e51b815260206004820152602660248201527f45524332303a207472616e7366657220616d6f756e742065786365656473206260448201527f616c616e6365000000000000000000000000000000000000000000000000000060648201526084016106a1565b6001600160a01b03848116600081815260208181526040808320878703905593871680835291849020805487019055925185815290927fddf252ad1be2c89b69c2b068fc378daa952ba7f163c4a11628f55a4df523b3ef910160405180910390a3611327565b6001600160a01b03811660009081526007602052604081206002015460055461154e9190611d6c565b6001600160a01b038316600090815260076020526040812060030154600654929350909161157c9190611d6c565b90506000678ac7230489e80000836115a9866001600160a01b031660009081526020819052604090205490565b6115b39190611d1d565b6115bd9190611d4a565b90506000678ac7230489e80000836115ea876001600160a01b031660009081526020819052604090205490565b6115f49190611d1d565b6115fe9190611d4a565b90508115611653576001600160a01b0385166000908152600760205260408120805484929061162e908490611ce8565b90915550506005546001600160a01b0386166000908152600760205260409020600201555b80156116a9576001600160a01b03851660009081526007602052604081206001018054839290611684908490611ce8565b90915550506006546001600160a01b0386166000908152600760205260409020600301555b5050505050565b60008183106116bf57816116c1565b825b9392505050565b6000816000036116da57506000919050565b600060016116e784611a88565b901c6001901b9050600181848161170057611700611d34565b048201901c9050600181848161171857611718611d34565b048201901c9050600181848161173057611730611d34565b048201901c9050600181848161174857611748611d34565b048201901c9050600181848161176057611760611d34565b048201901c9050600181848161177857611778611d34565b048201901c9050600181848161179057611790611d34565b048201901c90506116c1818285816117aa576117aa611d34565b046116b0565b6001600160a01b0382166118065760405162461bcd60e51b815260206004820152601f60248201527f45524332303a206d696e7420746f20746865207a65726f20616464726573730060448201526064016106a1565b61181260008383611a58565b80600260008282546118249190611ce8565b90915550506001600160a01b038216600081815260208181526040808320805486019055518481527fddf252ad1be2c89b69c2b068fc378daa952ba7f163c4a11628f55a4df523b3ef910160405180910390a35050565b6001600160a01b0382166118f75760405162461bcd60e51b815260206004820152602160248201527f45524332303a206275726e2066726f6d20746865207a65726f2061646472657360448201527f730000000000000000000000000000000000000000000000000000000000000060648201526084016106a1565b61190382600083611a58565b6001600160a01b038216600090815260208190526040902054818110156119925760405162461bcd60e51b815260206004820152602260248201527f45524332303a206275726e20616d6f756e7420657863656564732062616c616e60448201527f636500000000000000000000000000000000000000000000000000000000000060648201526084016106a1565b6001600160a01b0383166000818152602081815260408083208686039055600280548790039055518581529192917fddf252ad1be2c89b69c2b068fc378daa952ba7f163c4a11628f55a4df523b3ef910160405180910390a3505050565b600254611a05678ac7230489e8000083611d1d565b611a0f9190611d4a565b60056000828254611a209190611ce8565b909155505050565b600254611a3d678ac7230489e8000083611d1d565b611a479190611d4a565b60066000828254611a209190611ce8565b6001600160a01b03831615611a7057611a7083611525565b6001600160a01b0382161561061e5761061e82611525565b600080608083901c15611a9d57608092831c92015b604083901c15611aaf57604092831c92015b602083901c15611ac157602092831c92015b601083901c15611ad357601092831c92015b600883901c15611ae557600892831c92015b600483901c15611af757600492831c92015b600283901c15611b0957600292831c92015b600183901c156104665760010192915050565b600060208083528351808285015260005b81811015611b4957858101830151858201604001528201611b2d565b506000604082860101526040601f19601f8301168501019250505092915050565b80356001600160a01b0381168114611b8157600080fd5b919050565b60008060408385031215611b9957600080fd5b611ba283611b6a565b946020939093013593505050565b600080600060608486031215611bc557600080fd5b611bce84611b6a565b9250611bdc60208501611b6a565b9150604084013590509250925092565b600060208284031215611bfe57600080fd5b6116c182611b6a565b60008060408385031215611c1a57600080fd5b50508035926020909101359150565b600060208284031215611c3b57600080fd5b5035919050565b60008060408385031215611c5557600080fd5b82359150611c6560208401611b6a565b90509250929050565b60008060408385031215611c8157600080fd5b611c8a83611b6a565b9150611c6560208401611b6a565b600181811c90821680611cac57607f821691505b602082108103611ccc57634e487b7160e01b600052602260045260246000fd5b50919050565b634e487b7160e01b600052601160045260246000fd5b8082018082111561046657610466611cd2565b600060208284031215611d0d57600080fd5b815180151581146116c157600080fd5b808202811582820484141761046657610466611cd2565b634e487b7160e01b600052601260045260246000fd5b600082611d6757634e487b7160e01b600052601260045260246000fd5b500490565b8181038181111561046657610466611cd256fea2646970667358221220b8f84da0b6eebb9f2ec47e8ba0ad77fd0ad5d0f50224f1259937f10b02ac236164736f6c63430008130033",
  "immutableReferences": {
    "3450": [
      {
        "length": 32,
        "start": 880
      },
      {
        "length": 32,
        "start": 1311
      },
      {
        "length": 32,
        "start": 1967
      },
      {
        "length": 32,
        "start": 2597
      },
      {
        "length": 32,
        "start": 3224
      },
      {
        "length": 32,
        "start": 3420
      },
      {
        "length": 32,
        "start": 3477
      },
      {
        "length": 32,
        "start": 3553
      },
      {
        "length": 32,
        "start": 3626
      },
      {
        "length": 32,
        "start": 4008
      },
      {
        "length": 32,
        "start": 4205
      }
    ],
    "3453": [
      {
        "length": 32,
        "start": 917
      },
      {
        "length": 32,
        "start": 1449
      },
      {
        "length": 32,
        "start": 2119
      },
      {
        "length": 32,
        "start": 2743
      },
      {
        "length": 32,
        "start": 3283
      },
      {
        "length": 32,
        "start": 3515
      },
      {
        "length": 32,
        "start": 4104
      },
      {
        "length": 32,
        "start": 4257
      }
    ]
  },
  "source": "// SPDX-License-Identifier: MIT\r\npragma solidity ^0.8.0;\r\n\r\nimport \"@openzeppelin/contracts/token/ERC20/IERC20.sol\";\r\nimport \"@openzeppelin/contracts/utils/math/Math.sol\";\r\nimport \"@openzeppelin/contracts/utils/Address.sol\";\r\n\r\nimport \"./DualDividendToken.sol\";\r\n\r\n// TODO: keep frontrunning/dynamic nature in mind (min values etc.)\r\ncontract SwaparooPool is DualDividendToken {\r\n    uint public constant FEE = 30; // 30 = 0.3% = 0.003\r\n    uint public constant FEE_MULITPLIER = 10000;\r\n\r\n    // save amount of tokens additionally in this contract, since:\r\n    // 1) everybody can transfer e.g. tokenA to us, thus increasing the amount of this contract\r\n    // 2) we want to differentiate between the balance of reserves and the balance of dividends\r\n    uint public reserveA = 0;\r\n    uint public reserveB = 0;\r\n    uint private k = 0;\r\n\r\n    event LiquidityProvided(address liquidityProvider, uint amountA, uint amountB, uint addedShares);\r\n    event LiquidityRemoved(address liquidityProvider, uint removedShares, uint amountA, uint amountB);\r\n    event Swap(address user, uint amountIn, address tokenIn, uint amountOut, address tokenOut);\r\n\r\n    constructor(\r\n        address _tokenA,\r\n        address _tokenB,\r\n        string memory _liquidityTokenName,\r\n        string memory _liquidityTokenSymbol\r\n    ) DualDividendToken(_tokenA, _tokenB, _liquidityTokenName, _liquidityTokenSymbol) {\r\n        require(_tokenA != address(0) && _tokenB != address(0), \"Tokens cannot have the zero address\");\r\n        require(Address.isContract(_tokenA) && Address.isContract(_tokenB), \"Tokens must be contracts\");\r\n        require(_tokenA != _tokenB, \"TokenA must be different from TokenB\");\r\n\r\n        // TODO: Introspection if really ERC20\r\n        // tokenA & tokenB are already assigned in DualDividendToken\r\n    }\r\n\r\n    function getReserves() external view returns (uint, uint) {\r\n        return (reserveA, reserveB);\r\n    }\r\n\r\n    function getTokenAddresses() external view returns (address, address) {\r\n        return (address(tokenA), address(tokenB));\r\n    }\r\n\r\n    function getK() external view returns (uint) {\r\n        return k;\r\n    }\r\n\r\n    function provideLiquidity(uint amountA, uint amountB) external {\r\n        require(amountA > 0 && amountB > 0, \"Number of tokens must be greater than 0\");\r\n\r\n        // determine shares\r\n        uint shares;\r\n        if (totalSupply() > 0) {\r\n            require(reserveA * amountB == reserveB * amountA, \"Wrong proportion\");\r\n            shares = Math.min(\r\n                (amountA * totalSupply()) / reserveA,\r\n                (amountB * totalSupply()) / reserveB\r\n            );\r\n        } else {\r\n            shares = Math.sqrt(amountA * amountB);\r\n        }\r\n        _mint(msg.sender, shares);\r\n\r\n        // update balances (TokenA & TokenB)\r\n        tokenA.transferFrom(msg.sender, address(this), amountA);\r\n        tokenB.transferFrom(msg.sender, address(this), amountB);\r\n        reserveA += amountA;\r\n        reserveB += amountB;\r\n        k = reserveA * reserveB;\r\n\r\n        emit LiquidityProvided(msg.sender, amountA, amountB, shares);\r\n    }\r\n\r\n    function removeLiquidity(uint shares) external {\r\n        require(totalSupply() > 0, \"No liquidity\");\r\n\r\n        uint decreaseTokenA = (reserveA * shares) / totalSupply();\r\n        uint decreaseTokenB = (reserveB * shares) / totalSupply();\r\n\r\n        // adjust shares\r\n        _burn(msg.sender, shares);\r\n\r\n        // update balances\r\n        tokenA.transfer(msg.sender, decreaseTokenA);\r\n        tokenB.transfer(msg.sender, decreaseTokenB);\r\n        reserveA -= decreaseTokenA;\r\n        reserveB -= decreaseTokenB;\r\n        k = reserveA * reserveB;\r\n\r\n        emit LiquidityRemoved(msg.sender, shares, decreaseTokenA, decreaseTokenB);\r\n    }\r\n\r\n    function swap(uint amountIn, address _tokenIn) external {\r\n        require(_tokenIn == address(tokenA) || _tokenIn == address(tokenB), \"Token not supported\");\r\n\r\n        IERC20 tokenIn = IERC20(_tokenIn);\r\n        IERC20 tokenOut = (tokenIn == tokenA) ? tokenB : tokenA;\r\n        uint reserveIn  = (tokenIn == tokenA) ? reserveA : reserveB;\r\n        uint reserveOut = (tokenIn == tokenA) ? reserveB : reserveA;\r\n\r\n        uint amountInFees = (amountIn * FEE) / FEE_MULITPLIER;\r\n        uint amountInWithoutFees = amountIn - amountInFees;\r\n        uint amountOut = (reserveOut * amountInWithoutFees) / (reserveIn + amountInWithoutFees);\r\n\r\n        tokenIn.transferFrom(msg.sender, address(this), amountIn);\r\n        tokenOut.transfer(msg.sender, amountOut);\r\n        reserveA = (tokenIn == tokenA) ? reserveA + amountInWithoutFees : reserveA - amountOut;\r\n        reserveB = (tokenIn == tokenB) ? reserveB + amountInWithoutFees : reserveB - amountOut;\r\n\r\n        if (tokenIn == tokenA) distributeDividendsA(amountInFees);\r\n        if (tokenIn == tokenB) distributeDividendsB(amountInFees);\r\n\r\n        emit Swap(msg.sender, amountIn, address(tokenIn), amountOut, address(tokenOut));\r\n    }\r\n}\r\n",
  "sourcePath": "C:\\Users\\lukas\\Documents\\git\\swaparoo\\smart-contracts\\contracts\\SwaparooPool.sol",
  "compiler": {
    "name": "solc",
    "version": "0.8.19+commit.7dd6d404.Emscripten.clang"
  },
  "schemaVersion": "3.4.14",
  "updatedAt": "2023-07-10T21:52:45.512Z",
  "devdoc": {
    "events": {
      "Approval(address,address,uint256)": {
        "details": "Emitted when the allowance of a `spender` for an `owner` is set by a call to {approve}. `value` is the new allowance."
      },
      "Transfer(address,address,uint256)": {
        "details": "Emitted when `value` tokens are moved from one account (`from`) to another (`to`). Note that `value` may be zero."
      }
    },
    "kind": "dev",
    "methods": {
      "allowance(address,address)": {
        "details": "See {IERC20-allowance}."
      },
      "approve(address,uint256)": {
        "details": "See {IERC20-approve}. NOTE: If `amount` is the maximum `uint256`, the allowance is not updated on `transferFrom`. This is semantically equivalent to an infinite approval. Requirements: - `spender` cannot be the zero address."
      },
      "balanceOf(address)": {
        "details": "See {IERC20-balanceOf}."
      },
      "decimals()": {
        "details": "Returns the number of decimals used to get its user representation. For example, if `decimals` equals `2`, a balance of `505` tokens should be displayed to a user as `5.05` (`505 / 10 ** 2`). Tokens usually opt for a value of 18, imitating the relationship between Ether and Wei. This is the default value returned by this function, unless it's overridden. NOTE: This information is only used for _display_ purposes: it in no way affects any of the arithmetic of the contract, including {IERC20-balanceOf} and {IERC20-transfer}."
      },
      "decreaseAllowance(address,uint256)": {
        "details": "Atomically decreases the allowance granted to `spender` by the caller. This is an alternative to {approve} that can be used as a mitigation for problems described in {IERC20-approve}. Emits an {Approval} event indicating the updated allowance. Requirements: - `spender` cannot be the zero address. - `spender` must have allowance for the caller of at least `subtractedValue`."
      },
      "increaseAllowance(address,uint256)": {
        "details": "Atomically increases the allowance granted to `spender` by the caller. This is an alternative to {approve} that can be used as a mitigation for problems described in {IERC20-approve}. Emits an {Approval} event indicating the updated allowance. Requirements: - `spender` cannot be the zero address."
      },
      "name()": {
        "details": "Returns the name of the token."
      },
      "symbol()": {
        "details": "Returns the symbol of the token, usually a shorter version of the name."
      },
      "totalSupply()": {
        "details": "See {IERC20-totalSupply}."
      },
      "transfer(address,uint256)": {
        "details": "See {IERC20-transfer}. Requirements: - `to` cannot be the zero address. - the caller must have a balance of at least `amount`."
      },
      "transferFrom(address,address,uint256)": {
        "details": "See {IERC20-transferFrom}. Emits an {Approval} event indicating the updated allowance. This is not required by the EIP. See the note at the beginning of {ERC20}. NOTE: Does not update the allowance if the current allowance is the maximum `uint256`. Requirements: - `from` and `to` cannot be the zero address. - `from` must have a balance of at least `amount`. - the caller must have allowance for ``from``'s tokens of at least `amount`."
      }
    },
    "version": 1
  },
  "userdoc": {
    "kind": "user",
    "methods": {},
    "version": 1
  }
}