{
  "contractName": "LiquidityPool",
  "abi": [
    {
      "inputs": [
        {
          "internalType": "address",
          "name": "_tokenA",
          "type": "address"
        },
        {
          "internalType": "address",
          "name": "_tokenB",
          "type": "address"
        }
      ],
      "stateMutability": "nonpayable",
      "type": "constructor"
    },
    {
      "inputs": [],
      "name": "amountTokenA",
      "outputs": [
        {
          "internalType": "uint256",
          "name": "",
          "type": "uint256"
        }
      ],
      "stateMutability": "view",
      "type": "function"
    },
    {
      "inputs": [],
      "name": "amountTokenB",
      "outputs": [
        {
          "internalType": "uint256",
          "name": "",
          "type": "uint256"
        }
      ],
      "stateMutability": "view",
      "type": "function"
    },
    {
      "inputs": [],
      "name": "intialTokensProvided",
      "outputs": [
        {
          "internalType": "bool",
          "name": "",
          "type": "bool"
        }
      ],
      "stateMutability": "view",
      "type": "function"
    },
    {
      "inputs": [],
      "name": "tokenA",
      "outputs": [
        {
          "internalType": "contract IERC20",
          "name": "",
          "type": "address"
        }
      ],
      "stateMutability": "view",
      "type": "function"
    },
    {
      "inputs": [],
      "name": "tokenB",
      "outputs": [
        {
          "internalType": "contract IERC20",
          "name": "",
          "type": "address"
        }
      ],
      "stateMutability": "view",
      "type": "function"
    },
    {
      "inputs": [
        {
          "internalType": "uint256",
          "name": "_amountTokenA",
          "type": "uint256"
        },
        {
          "internalType": "uint256",
          "name": "_amountTokenB",
          "type": "uint256"
        }
      ],
      "name": "provideLiqudidity",
      "outputs": [],
      "stateMutability": "nonpayable",
      "type": "function"
    }
  ],
  "bytecode": "0x60c060405260008055600060015560006002556000600360006101000a81548160ff021916908315150217905550600060055534801561003e57600080fd5b50604051610d45380380610d4583398181016040528101906100609190610132565b8173ffffffffffffffffffffffffffffffffffffffff1660808173ffffffffffffffffffffffffffffffffffffffff16815250508073ffffffffffffffffffffffffffffffffffffffff1660a08173ffffffffffffffffffffffffffffffffffffffff16815250505050610172565b600080fd5b600073ffffffffffffffffffffffffffffffffffffffff82169050919050565b60006100ff826100d4565b9050919050565b61010f816100f4565b811461011a57600080fd5b50565b60008151905061012c81610106565b92915050565b60008060408385031215610149576101486100cf565b5b60006101578582860161011d565b92505060206101688582860161011d565b9150509250929050565b60805160a051610ba06101a56000396000818161015801526103b0015260008181610121015261030f0152610ba06000f3fe608060405234801561001057600080fd5b50600436106100625760003560e01c80630e1d95d8146100675780630fc63d101461008557806342c5a27b146100a35780635f64b55b146100c15780636c0c06bf146100df5780639d4dd5df146100fd575b600080fd5b61006f610119565b60405161007c91906106fd565b60405180910390f35b61008d61011f565b60405161009a9190610797565b60405180910390f35b6100ab610143565b6040516100b891906107cd565b60405180910390f35b6100c9610156565b6040516100d69190610797565b60405180910390f35b6100e761017a565b6040516100f491906106fd565b60405180910390f35b61011760048036038101906101129190610819565b610180565b005b60015481565b7f000000000000000000000000000000000000000000000000000000000000000081565b600360009054906101000a900460ff1681565b7f000000000000000000000000000000000000000000000000000000000000000081565b60005481565b6000821180156101905750600081115b6101cf576040517f08c379a00000000000000000000000000000000000000000000000000000000081526004016101c6906108dc565b60405180910390fd5b6000600360009054906101000a900460ff161561028757826001546101f4919061092b565b82600054610202919061092b565b14610242576040517f08c379a000000000000000000000000000000000000000000000000000000000815260040161023990610a05565b60405180910390fd5b610280600554600054856102569190610a54565b610260919061092b565b600554600154856102719190610a54565b61027b919061092b565b6104f1565b905061029e565b61029b8284610296919061092b565b61050a565b90505b80600460003373ffffffffffffffffffffffffffffffffffffffff1673ffffffffffffffffffffffffffffffffffffffff16815260200190815260200160002060008282546102ed9190610a85565b9250508190555080600560008282546103069190610a85565b925050819055507f000000000000000000000000000000000000000000000000000000000000000073ffffffffffffffffffffffffffffffffffffffff166323b872dd3330866040518463ffffffff1660e01b815260040161036a93929190610ada565b6020604051808303816000875af1158015610389573d6000803e3d6000fd5b505050506040513d601f19601f820116820180604052508101906103ad9190610b3d565b507f000000000000000000000000000000000000000000000000000000000000000073ffffffffffffffffffffffffffffffffffffffff166323b872dd3330856040518463ffffffff1660e01b815260040161040b93929190610ada565b6020604051808303816000875af115801561042a573d6000803e3d6000fd5b505050506040513d601f19601f8201168201806040525081019061044e9190610b3d565b50826000808282546104609190610a85565b9250508190555081600160008282546104799190610a85565b92505081905550600154600054610490919061092b565b60028190555080600460003373ffffffffffffffffffffffffffffffffffffffff1673ffffffffffffffffffffffffffffffffffffffff16815260200190815260200160002060008282546104e59190610a85565b92505081905550505050565b60008183106105005781610502565b825b905092915050565b600080820361051c57600090506105fe565b6000600161052984610603565b901c6001901b9050600181848161054357610542610a25565b5b048201901c9050600181848161055c5761055b610a25565b5b048201901c9050600181848161057557610574610a25565b5b048201901c9050600181848161058e5761058d610a25565b5b048201901c905060018184816105a7576105a6610a25565b5b048201901c905060018184816105c0576105bf610a25565b5b048201901c905060018184816105d9576105d8610a25565b5b048201901c90506105fa818285816105f4576105f3610a25565b5b046104f1565b9150505b919050565b600080600090506000608084901c111561062557608083901c92506080810190505b6000604084901c111561064057604083901c92506040810190505b6000602084901c111561065b57602083901c92506020810190505b6000601084901c111561067657601083901c92506010810190505b6000600884901c111561069157600883901c92506008810190505b6000600484901c11156106ac57600483901c92506004810190505b6000600284901c11156106c757600283901c92506002810190505b6000600184901c11156106db576001810190505b80915050919050565b6000819050919050565b6106f7816106e4565b82525050565b600060208201905061071260008301846106ee565b92915050565b600073ffffffffffffffffffffffffffffffffffffffff82169050919050565b6000819050919050565b600061075d61075861075384610718565b610738565b610718565b9050919050565b600061076f82610742565b9050919050565b600061078182610764565b9050919050565b61079181610776565b82525050565b60006020820190506107ac6000830184610788565b92915050565b60008115159050919050565b6107c7816107b2565b82525050565b60006020820190506107e260008301846107be565b92915050565b600080fd5b6107f6816106e4565b811461080157600080fd5b50565b600081359050610813816107ed565b92915050565b600080604083850312156108305761082f6107e8565b5b600061083e85828601610804565b925050602061084f85828601610804565b9150509250929050565b600082825260208201905092915050565b7f6e756d626572206f6620746f6b656e73206d757374206265206772656174657260008201527f207468616e203000000000000000000000000000000000000000000000000000602082015250565b60006108c6602783610859565b91506108d18261086a565b604082019050919050565b600060208201905081810360008301526108f5816108b9565b9050919050565b7f4e487b7100000000000000000000000000000000000000000000000000000000600052601160045260246000fd5b6000610936826106e4565b9150610941836106e4565b925082820261094f816106e4565b91508282048414831517610966576109656108fc565b5b5092915050565b7f70726f706f7274696f6e206f6620746f6b656e20696e637265617365206d757360008201527f7420657175616c2070726f706f7274696f6e206f6620726573657276653a206460208201527f782f6479203d3d20582f59000000000000000000000000000000000000000000604082015250565b60006109ef604b83610859565b91506109fa8261096d565b606082019050919050565b60006020820190508181036000830152610a1e816109e2565b9050919050565b7f4e487b7100000000000000000000000000000000000000000000000000000000600052601260045260246000fd5b6000610a5f826106e4565b9150610a6a836106e4565b925082610a7a57610a79610a25565b5b828204905092915050565b6000610a90826106e4565b9150610a9b836106e4565b9250828201905080821115610ab357610ab26108fc565b5b92915050565b6000610ac482610718565b9050919050565b610ad481610ab9565b82525050565b6000606082019050610aef6000830186610acb565b610afc6020830185610acb565b610b0960408301846106ee565b949350505050565b610b1a816107b2565b8114610b2557600080fd5b50565b600081519050610b3781610b11565b92915050565b600060208284031215610b5357610b526107e8565b5b6000610b6184828501610b28565b9150509291505056fea2646970667358221220d08f9ac733b00319a0d17b170ee437d43265b0869edd473ad06c09a915bbab2164736f6c63430008130033",
  "immutableReferences": {
    "1584": [
      {
        "length": 32,
        "start": 289
      },
      {
        "length": 32,
        "start": 783
      }
    ],
    "1587": [
      {
        "length": 32,
        "start": 344
      },
      {
        "length": 32,
        "start": 944
      }
    ]
  },
  "source": "// SPDX-License-Identifier: MIT\r\npragma solidity ^0.8.0;\r\n\r\nimport \"@openzeppelin/contracts/token/ERC20/IERC20.sol\";\r\nimport \"@openzeppelin/contracts/utils/math/Math.sol\";\r\n\r\n// TODO: keep frontrunning/dynamic nature in mind (min values etc.)\r\ncontract LiquidityPool {\r\n    IERC20 public immutable tokenA;\r\n    IERC20 public immutable tokenB;\r\n    // save amount of tokens addtionally in this contract, \r\n    // since everybody can transfer e.g. tokenA to us, thus increasing the amount of this contract\r\n    uint public amountTokenA = 0;\r\n    uint public amountTokenB = 0; \r\n    uint private k = 0;\r\n    bool public intialTokensProvided = false;\r\n\r\n    mapping(address => uint256) private shares;\r\n    uint numTotalShares = 0;\r\n\r\n    constructor(address _tokenA, address _tokenB) {\r\n        // TODO: validation (not zero address, must have code deployed)\r\n        // TODO: Introspection if really ERC20\r\n        tokenA = IERC20(_tokenA);\r\n        tokenB = IERC20(_tokenB);\r\n    }\r\n\r\n\r\n    function provideLiqudidity(uint _amountTokenA, uint _amountTokenB) external {\r\n        require(_amountTokenA > 0 && _amountTokenB > 0, \"number of tokens must be greater than 0\");\r\n        \r\n        // TODO: check if approved/allowance\r\n        // TODO: revisit intialTokensProvided\r\n\r\n        // determine shares\r\n        uint numShares;\r\n        if(intialTokensProvided) {\r\n            // s = (dx/X)* T = (dy/Y)*T\r\n            require(amountTokenA * _amountTokenB == amountTokenB * _amountTokenA, \"proportion of token increase must equal proportion of reserve: dx/dy == X/Y\");\r\n            numShares = Math.min(\r\n                (_amountTokenA/amountTokenA) * numTotalShares,\r\n                (_amountTokenB/amountTokenB) * numTotalShares\r\n            );\r\n        } else {\r\n            numShares = Math.sqrt(_amountTokenA * _amountTokenB);\r\n        }\r\n        shares[msg.sender] += numShares;\r\n        numTotalShares += numShares;\r\n\r\n        // update balances (TokenA & TokenB)\r\n        tokenA.transferFrom(msg.sender, address(this), _amountTokenA);\r\n        tokenB.transferFrom(msg.sender, address(this), _amountTokenB);\r\n        amountTokenA += _amountTokenA;\r\n        amountTokenB += _amountTokenB;\r\n        k = amountTokenA * amountTokenB;\r\n\r\n        shares[msg.sender] += numShares;\r\n    }\r\n\r\n    /*\r\n    function swap(uint _amountTokenIn, address _tokenIn) external {\r\n        require(_tokenIn == address(tokenA) || _tokenIn == address(tokenB), \"tokenIn not supported by this pool\")\r\n\r\n    }\r\n    */\r\n}",
  "sourcePath": "C:\\Users\\lukas\\Documents\\git\\e11809647\\contracts\\LiquidityPool.sol",
  "compiler": {
    "name": "solc",
    "version": "0.8.19+commit.7dd6d404.Emscripten.clang"
  },
  "schemaVersion": "3.4.13",
  "updatedAt": "2023-06-12T09:36:10.857Z",
  "devdoc": {
    "kind": "dev",
    "methods": {},
    "version": 1
  },
  "userdoc": {
    "kind": "user",
    "methods": {},
    "version": 1
  }
}