{
  "contractName": "SimpleDualDividendToken",
  "abi": [
    {
      "inputs": [
        {
          "internalType": "address",
          "name": "_tokenA",
          "type": "address"
        },
        {
          "internalType": "address",
          "name": "_tokenB",
          "type": "address"
        }
      ],
      "stateMutability": "nonpayable",
      "type": "constructor"
    },
    {
      "anonymous": false,
      "inputs": [
        {
          "indexed": true,
          "internalType": "address",
          "name": "owner",
          "type": "address"
        },
        {
          "indexed": true,
          "internalType": "address",
          "name": "spender",
          "type": "address"
        },
        {
          "indexed": false,
          "internalType": "uint256",
          "name": "value",
          "type": "uint256"
        }
      ],
      "name": "Approval",
      "type": "event"
    },
    {
      "anonymous": false,
      "inputs": [
        {
          "indexed": true,
          "internalType": "address",
          "name": "from",
          "type": "address"
        },
        {
          "indexed": true,
          "internalType": "address",
          "name": "to",
          "type": "address"
        },
        {
          "indexed": false,
          "internalType": "uint256",
          "name": "value",
          "type": "uint256"
        }
      ],
      "name": "Transfer",
      "type": "event"
    },
    {
      "inputs": [
        {
          "internalType": "address",
          "name": "owner",
          "type": "address"
        },
        {
          "internalType": "address",
          "name": "spender",
          "type": "address"
        }
      ],
      "name": "allowance",
      "outputs": [
        {
          "internalType": "uint256",
          "name": "",
          "type": "uint256"
        }
      ],
      "stateMutability": "view",
      "type": "function"
    },
    {
      "inputs": [
        {
          "internalType": "address",
          "name": "spender",
          "type": "address"
        },
        {
          "internalType": "uint256",
          "name": "amount",
          "type": "uint256"
        }
      ],
      "name": "approve",
      "outputs": [
        {
          "internalType": "bool",
          "name": "",
          "type": "bool"
        }
      ],
      "stateMutability": "nonpayable",
      "type": "function"
    },
    {
      "inputs": [
        {
          "internalType": "address",
          "name": "account",
          "type": "address"
        }
      ],
      "name": "balanceOf",
      "outputs": [
        {
          "internalType": "uint256",
          "name": "",
          "type": "uint256"
        }
      ],
      "stateMutability": "view",
      "type": "function"
    },
    {
      "inputs": [],
      "name": "decimals",
      "outputs": [
        {
          "internalType": "uint8",
          "name": "",
          "type": "uint8"
        }
      ],
      "stateMutability": "view",
      "type": "function"
    },
    {
      "inputs": [
        {
          "internalType": "address",
          "name": "spender",
          "type": "address"
        },
        {
          "internalType": "uint256",
          "name": "subtractedValue",
          "type": "uint256"
        }
      ],
      "name": "decreaseAllowance",
      "outputs": [
        {
          "internalType": "bool",
          "name": "",
          "type": "bool"
        }
      ],
      "stateMutability": "nonpayable",
      "type": "function"
    },
    {
      "inputs": [],
      "name": "getAndUpdateDividends",
      "outputs": [
        {
          "internalType": "uint256",
          "name": "",
          "type": "uint256"
        },
        {
          "internalType": "uint256",
          "name": "",
          "type": "uint256"
        }
      ],
      "stateMutability": "nonpayable",
      "type": "function"
    },
    {
      "inputs": [],
      "name": "getDividends",
      "outputs": [
        {
          "internalType": "uint256",
          "name": "",
          "type": "uint256"
        },
        {
          "internalType": "uint256",
          "name": "",
          "type": "uint256"
        }
      ],
      "stateMutability": "view",
      "type": "function"
    },
    {
      "inputs": [
        {
          "internalType": "address",
          "name": "spender",
          "type": "address"
        },
        {
          "internalType": "uint256",
          "name": "addedValue",
          "type": "uint256"
        }
      ],
      "name": "increaseAllowance",
      "outputs": [
        {
          "internalType": "bool",
          "name": "",
          "type": "bool"
        }
      ],
      "stateMutability": "nonpayable",
      "type": "function"
    },
    {
      "inputs": [],
      "name": "name",
      "outputs": [
        {
          "internalType": "string",
          "name": "",
          "type": "string"
        }
      ],
      "stateMutability": "view",
      "type": "function"
    },
    {
      "inputs": [],
      "name": "payoutDividends",
      "outputs": [],
      "stateMutability": "nonpayable",
      "type": "function"
    },
    {
      "inputs": [],
      "name": "symbol",
      "outputs": [
        {
          "internalType": "string",
          "name": "",
          "type": "string"
        }
      ],
      "stateMutability": "view",
      "type": "function"
    },
    {
      "inputs": [],
      "name": "totalSupply",
      "outputs": [
        {
          "internalType": "uint256",
          "name": "",
          "type": "uint256"
        }
      ],
      "stateMutability": "view",
      "type": "function"
    },
    {
      "inputs": [
        {
          "internalType": "address",
          "name": "to",
          "type": "address"
        },
        {
          "internalType": "uint256",
          "name": "amount",
          "type": "uint256"
        }
      ],
      "name": "transfer",
      "outputs": [
        {
          "internalType": "bool",
          "name": "",
          "type": "bool"
        }
      ],
      "stateMutability": "nonpayable",
      "type": "function"
    },
    {
      "inputs": [
        {
          "internalType": "address",
          "name": "from",
          "type": "address"
        },
        {
          "internalType": "address",
          "name": "to",
          "type": "address"
        },
        {
          "internalType": "uint256",
          "name": "amount",
          "type": "uint256"
        }
      ],
      "name": "transferFrom",
      "outputs": [
        {
          "internalType": "bool",
          "name": "",
          "type": "bool"
        }
      ],
      "stateMutability": "nonpayable",
      "type": "function"
    },
    {
      "inputs": [
        {
          "internalType": "uint256",
          "name": "amount",
          "type": "uint256"
        },
        {
          "internalType": "address",
          "name": "token",
          "type": "address"
        }
      ],
      "name": "receiveProfits",
      "outputs": [],
      "stateMutability": "nonpayable",
      "type": "function"
    },
    {
      "inputs": [
        {
          "internalType": "uint256",
          "name": "amount",
          "type": "uint256"
        }
      ],
      "name": "mint",
      "outputs": [],
      "stateMutability": "nonpayable",
      "type": "function"
    },
    {
      "inputs": [
        {
          "internalType": "uint256",
          "name": "amount",
          "type": "uint256"
        }
      ],
      "name": "burn",
      "outputs": [],
      "stateMutability": "nonpayable",
      "type": "function"
    }
  ],
  "bytecode": "0x60c06040523480156200001157600080fd5b5060405162001563380380620015638339810160408190526200003491620000d2565b8181604051806040016040528060098152602001682234bb34aa37b5b2b760b91b81525060405180604001604052806002815260200161111560f21b81525081818160039081620000869190620001af565b506004620000958282620001af565b5050506001600160a01b0393841660805250501660a052506200027b9050565b80516001600160a01b0381168114620000cd57600080fd5b919050565b60008060408385031215620000e657600080fd5b620000f183620000b5565b91506200010160208401620000b5565b90509250929050565b634e487b7160e01b600052604160045260246000fd5b600181811c908216806200013557607f821691505b6020821081036200015657634e487b7160e01b600052602260045260246000fd5b50919050565b601f821115620001aa57600081815260208120601f850160051c81016020861015620001855750805b601f850160051c820191505b81811015620001a65782815560010162000191565b5050505b505050565b81516001600160401b03811115620001cb57620001cb6200010a565b620001e381620001dc845462000120565b846200015c565b602080601f8311600181146200021b5760008415620002025750858301515b600019600386901b1c1916600185901b178555620001a6565b600085815260208120601f198616915b828110156200024c578886015182559484019460019091019084016200022b565b50858210156200026b5787850151600019600388901b60f8161c191681555b5050505050600190811b01905550565b60805160a0516112a6620002bd600039600081816104aa0152818161057001526106ca01526000818161042001528181610535015261068801526112a66000f3fe608060405234801561001057600080fd5b506004361061011b5760003560e01c806370a08231116100b2578063a0712d6811610081578063a9059cbb11610066578063a9059cbb1461024c578063dd62ed3e1461025f578063ed442e141461029857600080fd5b8063a0712d6814610226578063a457c2d71461023957600080fd5b806370a08231146101c557806395d89b41146101ee5780639f24eb2f146101f6578063a0331c441461020957600080fd5b8063313ce567116100ee578063313ce56714610186578063395093511461019557806342966c68146101a857806344b4d279146101bd57600080fd5b806306fdde0314610120578063095ea7b31461013e57806318160ddd1461016157806323b872dd14610173575b600080fd5b6101286102b4565b604051610135919061103e565b60405180910390f35b61015161014c3660046110a8565b610346565b6040519015158152602001610135565b6002545b604051908152602001610135565b6101516101813660046110d2565b610360565b60405160128152602001610135565b6101516101a33660046110a8565b610384565b6101bb6101b636600461110e565b6103c3565b005b6101bb6103d0565b6101656101d3366004611127565b6001600160a01b031660009081526020819052604090205490565b610128610524565b6101bb610204366004611149565b610533565b61021161070e565b60408051928352602083019190915201610135565b6101bb61023436600461110e565b610737565b6101516102473660046110a8565b610741565b61015161025a3660046110a8565b6107eb565b61016561026d366004611175565b6001600160a01b03918216600090815260016020908152604080832093909416825291909152205490565b3360009081526007602052604090208054600190910154610211565b6060600380546102c39061119f565b80601f01602080910402602001604051908101604052809291908181526020018280546102ef9061119f565b801561033c5780601f106103115761010080835404028352916020019161033c565b820191906000526020600020905b81548152906001019060200180831161031f57829003601f168201915b5050505050905090565b6000336103548185856107f9565b60019150505b92915050565b60003361036e858285610951565b6103798585856109e3565b506001949350505050565b3360008181526001602090815260408083206001600160a01b038716845290915281205490919061035490829086906103be9087906111ef565b6107f9565b6103cd3382610bdb565b50565b6103d933610d50565b3360008181526007602052604080822080546001820180549285905593909355905163a9059cbb60e01b815260048101939093526024830182905290916001600160a01b037f0000000000000000000000000000000000000000000000000000000000000000169063a9059cbb906044016020604051808303816000875af1158015610469573d6000803e3d6000fd5b505050506040513d601f19601f8201168201806040525081019061048d9190611202565b5060405163a9059cbb60e01b8152336004820152602481018290527f00000000000000000000000000000000000000000000000000000000000000006001600160a01b03169063a9059cbb906044016020604051808303816000875af11580156104fb573d6000803e3d6000fd5b505050506040513d601f19601f8201168201806040525081019061051f9190611202565b505050565b6060600480546102c39061119f565b7f00000000000000000000000000000000000000000000000000000000000000006001600160a01b0316816001600160a01b031614806105a457507f00000000000000000000000000000000000000000000000000000000000000006001600160a01b0316816001600160a01b0316145b6105f55760405162461bcd60e51b815260206004820152601360248201527f546f6b656e206e6f7420737570706f727465640000000000000000000000000060448201526064015b60405180910390fd5b6040517f23b872dd000000000000000000000000000000000000000000000000000000008152336004820152306024820152604481018390526001600160a01b038216906323b872dd906064016020604051808303816000875af1158015610661573d6000803e3d6000fd5b505050506040513d601f19601f820116820180604052508101906106859190611202565b507f00000000000000000000000000000000000000000000000000000000000000006001600160a01b0316816001600160a01b0316036106c8576106c882610edb565b7f00000000000000000000000000000000000000000000000000000000000000006001600160a01b0316816001600160a01b03160361070a5761070a82610f13565b5050565b60008061071a33610d50565b505033600090815260076020526040902080546001909101549091565b6103cd3382610f43565b3360008181526001602090815260408083206001600160a01b0387168452909152812054909190838110156107de5760405162461bcd60e51b815260206004820152602560248201527f45524332303a2064656372656173656420616c6c6f77616e63652062656c6f7760448201527f207a65726f00000000000000000000000000000000000000000000000000000060648201526084016105ec565b61037982868684036107f9565b6000336103548185856109e3565b6001600160a01b0383166108745760405162461bcd60e51b8152602060048201526024808201527f45524332303a20617070726f76652066726f6d20746865207a65726f2061646460448201527f726573730000000000000000000000000000000000000000000000000000000060648201526084016105ec565b6001600160a01b0382166108f05760405162461bcd60e51b815260206004820152602260248201527f45524332303a20617070726f766520746f20746865207a65726f20616464726560448201527f737300000000000000000000000000000000000000000000000000000000000060648201526084016105ec565b6001600160a01b0383811660008181526001602090815260408083209487168084529482529182902085905590518481527f8c5be1e5ebec7d5bd14f71427d1e84f3dd0314c0f7b2291e5b200ac8c7c3b925910160405180910390a3505050565b6001600160a01b0383811660009081526001602090815260408083209386168352929052205460001981146109dd57818110156109d05760405162461bcd60e51b815260206004820152601d60248201527f45524332303a20696e73756666696369656e7420616c6c6f77616e636500000060448201526064016105ec565b6109dd84848484036107f9565b50505050565b6001600160a01b038316610a5f5760405162461bcd60e51b815260206004820152602560248201527f45524332303a207472616e736665722066726f6d20746865207a65726f20616460448201527f647265737300000000000000000000000000000000000000000000000000000060648201526084016105ec565b6001600160a01b038216610adb5760405162461bcd60e51b815260206004820152602360248201527f45524332303a207472616e7366657220746f20746865207a65726f206164647260448201527f657373000000000000000000000000000000000000000000000000000000000060648201526084016105ec565b610ae683838361100e565b6001600160a01b03831660009081526020819052604090205481811015610b755760405162461bcd60e51b815260206004820152602660248201527f45524332303a207472616e7366657220616d6f756e742065786365656473206260448201527f616c616e6365000000000000000000000000000000000000000000000000000060648201526084016105ec565b6001600160a01b03848116600081815260208181526040808320878703905593871680835291849020805487019055925185815290927fddf252ad1be2c89b69c2b068fc378daa952ba7f163c4a11628f55a4df523b3ef910160405180910390a36109dd565b6001600160a01b038216610c575760405162461bcd60e51b815260206004820152602160248201527f45524332303a206275726e2066726f6d20746865207a65726f2061646472657360448201527f730000000000000000000000000000000000000000000000000000000000000060648201526084016105ec565b610c638260008361100e565b6001600160a01b03821660009081526020819052604090205481811015610cf25760405162461bcd60e51b815260206004820152602260248201527f45524332303a206275726e20616d6f756e7420657863656564732062616c616e60448201527f636500000000000000000000000000000000000000000000000000000000000060648201526084016105ec565b6001600160a01b0383166000818152602081815260408083208686039055600280548790039055518581529192917fddf252ad1be2c89b69c2b068fc378daa952ba7f163c4a11628f55a4df523b3ef910160405180910390a3505050565b6001600160a01b038116600090815260076020526040812060020154600554610d799190611224565b6001600160a01b0383166000908152600760205260408120600301546006549293509091610da79190611224565b90506000678ac7230489e8000083610dd4866001600160a01b031660009081526020819052604090205490565b610dde9190611237565b610de8919061124e565b90506000678ac7230489e8000083610e15876001600160a01b031660009081526020819052604090205490565b610e1f9190611237565b610e29919061124e565b90508115610e7e576001600160a01b03851660009081526007602052604081208054849290610e599084906111ef565b90915550506005546001600160a01b0386166000908152600760205260409020600201555b8015610ed4576001600160a01b03851660009081526007602052604081206001018054839290610eaf9084906111ef565b90915550506006546001600160a01b0386166000908152600760205260409020600301555b5050505050565b600254610ef0678ac7230489e8000083611237565b610efa919061124e565b60056000828254610f0b91906111ef565b909155505050565b600254610f28678ac7230489e8000083611237565b610f32919061124e565b60066000828254610f0b91906111ef565b6001600160a01b038216610f995760405162461bcd60e51b815260206004820152601f60248201527f45524332303a206d696e7420746f20746865207a65726f20616464726573730060448201526064016105ec565b610fa56000838361100e565b8060026000828254610fb791906111ef565b90915550506001600160a01b038216600081815260208181526040808320805486019055518481527fddf252ad1be2c89b69c2b068fc378daa952ba7f163c4a11628f55a4df523b3ef910160405180910390a35050565b6001600160a01b038316156110265761102683610d50565b6001600160a01b0382161561051f5761051f82610d50565b600060208083528351808285015260005b8181101561106b5785810183015185820160400152820161104f565b506000604082860101526040601f19601f8301168501019250505092915050565b80356001600160a01b03811681146110a357600080fd5b919050565b600080604083850312156110bb57600080fd5b6110c48361108c565b946020939093013593505050565b6000806000606084860312156110e757600080fd5b6110f08461108c565b92506110fe6020850161108c565b9150604084013590509250925092565b60006020828403121561112057600080fd5b5035919050565b60006020828403121561113957600080fd5b6111428261108c565b9392505050565b6000806040838503121561115c57600080fd5b8235915061116c6020840161108c565b90509250929050565b6000806040838503121561118857600080fd5b6111918361108c565b915061116c6020840161108c565b600181811c908216806111b357607f821691505b6020821081036111d357634e487b7160e01b600052602260045260246000fd5b50919050565b634e487b7160e01b600052601160045260246000fd5b8082018082111561035a5761035a6111d9565b60006020828403121561121457600080fd5b8151801515811461114257600080fd5b8181038181111561035a5761035a6111d9565b808202811582820484141761035a5761035a6111d9565b60008261126b57634e487b7160e01b600052601260045260246000fd5b50049056fea2646970667358221220b0daef5ad5ff11c1b1e3c2bce1eeda5354e278472fe2421fb5763177dec43c1464736f6c63430008130033",
  "immutableReferences": {
    "3450": [
      {
        "length": 32,
        "start": 1056
      },
      {
        "length": 32,
        "start": 1333
      },
      {
        "length": 32,
        "start": 1672
      }
    ],
    "3453": [
      {
        "length": 32,
        "start": 1194
      },
      {
        "length": 32,
        "start": 1392
      },
      {
        "length": 32,
        "start": 1738
      }
    ]
  },
  "source": "// SPDX-License-Identifier: MIT\r\npragma solidity ^0.8.0;\r\n\r\nimport \"../DualDividendToken.sol\";\r\nimport \"@openzeppelin/contracts/token/ERC20/IERC20.sol\";\r\n\r\n// Receives profits in one of two assets, then distributes its profits to the token-holders\r\n// everybody can be token-holder\r\ncontract SimpleDualDividendToken is DualDividendToken {\r\n    constructor(address _tokenA, address _tokenB) DualDividendToken(_tokenA, _tokenB, \"DiviToken\", \"DT\") {}\r\n\r\n    function receiveProfits(uint amount, address token) external {\r\n        require(token == address(tokenA) || token == address(tokenB), \"Token not supported\");\r\n        \r\n        IERC20(token).transferFrom(msg.sender, address(this), amount);\r\n        \r\n        if(token == address(tokenA)) {\r\n            distributeDividendsA(amount);\r\n        }\r\n        if(token == address(tokenB)) {\r\n            distributeDividendsB(amount);\r\n        }\r\n    }\r\n\r\n    function mint(uint amount) external {\r\n        _mint(msg.sender, amount);\r\n    }\r\n\r\n    function burn(uint amount) external {\r\n        _burn(msg.sender, amount);\r\n    }\r\n}",
  "sourcePath": "C:\\Users\\lukas\\Documents\\git\\swaparoo\\smart-contracts\\contracts\\dummy-contracts\\SimpleDividendToken.sol",
  "compiler": {
    "name": "solc",
    "version": "0.8.19+commit.7dd6d404.Emscripten.clang"
  },
  "schemaVersion": "3.4.14",
  "updatedAt": "2023-07-08T22:39:33.107Z",
  "devdoc": {
    "events": {
      "Approval(address,address,uint256)": {
        "details": "Emitted when the allowance of a `spender` for an `owner` is set by a call to {approve}. `value` is the new allowance."
      },
      "Transfer(address,address,uint256)": {
        "details": "Emitted when `value` tokens are moved from one account (`from`) to another (`to`). Note that `value` may be zero."
      }
    },
    "kind": "dev",
    "methods": {
      "allowance(address,address)": {
        "details": "See {IERC20-allowance}."
      },
      "approve(address,uint256)": {
        "details": "See {IERC20-approve}. NOTE: If `amount` is the maximum `uint256`, the allowance is not updated on `transferFrom`. This is semantically equivalent to an infinite approval. Requirements: - `spender` cannot be the zero address."
      },
      "balanceOf(address)": {
        "details": "See {IERC20-balanceOf}."
      },
      "decimals()": {
        "details": "Returns the number of decimals used to get its user representation. For example, if `decimals` equals `2`, a balance of `505` tokens should be displayed to a user as `5.05` (`505 / 10 ** 2`). Tokens usually opt for a value of 18, imitating the relationship between Ether and Wei. This is the default value returned by this function, unless it's overridden. NOTE: This information is only used for _display_ purposes: it in no way affects any of the arithmetic of the contract, including {IERC20-balanceOf} and {IERC20-transfer}."
      },
      "decreaseAllowance(address,uint256)": {
        "details": "Atomically decreases the allowance granted to `spender` by the caller. This is an alternative to {approve} that can be used as a mitigation for problems described in {IERC20-approve}. Emits an {Approval} event indicating the updated allowance. Requirements: - `spender` cannot be the zero address. - `spender` must have allowance for the caller of at least `subtractedValue`."
      },
      "increaseAllowance(address,uint256)": {
        "details": "Atomically increases the allowance granted to `spender` by the caller. This is an alternative to {approve} that can be used as a mitigation for problems described in {IERC20-approve}. Emits an {Approval} event indicating the updated allowance. Requirements: - `spender` cannot be the zero address."
      },
      "name()": {
        "details": "Returns the name of the token."
      },
      "symbol()": {
        "details": "Returns the symbol of the token, usually a shorter version of the name."
      },
      "totalSupply()": {
        "details": "See {IERC20-totalSupply}."
      },
      "transfer(address,uint256)": {
        "details": "See {IERC20-transfer}. Requirements: - `to` cannot be the zero address. - the caller must have a balance of at least `amount`."
      },
      "transferFrom(address,address,uint256)": {
        "details": "See {IERC20-transferFrom}. Emits an {Approval} event indicating the updated allowance. This is not required by the EIP. See the note at the beginning of {ERC20}. NOTE: Does not update the allowance if the current allowance is the maximum `uint256`. Requirements: - `from` and `to` cannot be the zero address. - `from` must have a balance of at least `amount`. - the caller must have allowance for ``from``'s tokens of at least `amount`."
      }
    },
    "version": 1
  },
  "userdoc": {
    "kind": "user",
    "methods": {},
    "version": 1
  }
}