{
  "contractName": "SwaparooCore",
  "abi": [
    {
      "inputs": [],
      "stateMutability": "nonpayable",
      "type": "constructor"
    },
    {
      "anonymous": false,
      "inputs": [
        {
          "indexed": false,
          "internalType": "address",
          "name": "account",
          "type": "address"
        }
      ],
      "name": "OwnerAdded",
      "type": "event"
    },
    {
      "anonymous": false,
      "inputs": [
        {
          "indexed": false,
          "internalType": "address",
          "name": "account",
          "type": "address"
        }
      ],
      "name": "OwnerRemoved",
      "type": "event"
    },
    {
      "anonymous": false,
      "inputs": [
        {
          "indexed": false,
          "internalType": "address",
          "name": "pool",
          "type": "address"
        },
        {
          "indexed": false,
          "internalType": "address",
          "name": "tokenA",
          "type": "address"
        },
        {
          "indexed": false,
          "internalType": "address",
          "name": "tokenB",
          "type": "address"
        }
      ],
      "name": "PoolAdded",
      "type": "event"
    },
    {
      "anonymous": false,
      "inputs": [
        {
          "indexed": false,
          "internalType": "address",
          "name": "pool",
          "type": "address"
        },
        {
          "indexed": false,
          "internalType": "address",
          "name": "tokenA",
          "type": "address"
        },
        {
          "indexed": false,
          "internalType": "address",
          "name": "tokenB",
          "type": "address"
        }
      ],
      "name": "PoolRemoved",
      "type": "event"
    },
    {
      "anonymous": false,
      "inputs": [
        {
          "indexed": true,
          "internalType": "bytes32",
          "name": "role",
          "type": "bytes32"
        },
        {
          "indexed": true,
          "internalType": "bytes32",
          "name": "previousAdminRole",
          "type": "bytes32"
        },
        {
          "indexed": true,
          "internalType": "bytes32",
          "name": "newAdminRole",
          "type": "bytes32"
        }
      ],
      "name": "RoleAdminChanged",
      "type": "event"
    },
    {
      "anonymous": false,
      "inputs": [
        {
          "indexed": true,
          "internalType": "bytes32",
          "name": "role",
          "type": "bytes32"
        },
        {
          "indexed": true,
          "internalType": "address",
          "name": "account",
          "type": "address"
        },
        {
          "indexed": true,
          "internalType": "address",
          "name": "sender",
          "type": "address"
        }
      ],
      "name": "RoleGranted",
      "type": "event"
    },
    {
      "anonymous": false,
      "inputs": [
        {
          "indexed": true,
          "internalType": "bytes32",
          "name": "role",
          "type": "bytes32"
        },
        {
          "indexed": true,
          "internalType": "address",
          "name": "account",
          "type": "address"
        },
        {
          "indexed": true,
          "internalType": "address",
          "name": "sender",
          "type": "address"
        }
      ],
      "name": "RoleRevoked",
      "type": "event"
    },
    {
      "inputs": [],
      "name": "DEFAULT_ADMIN_ROLE",
      "outputs": [
        {
          "internalType": "bytes32",
          "name": "",
          "type": "bytes32"
        }
      ],
      "stateMutability": "view",
      "type": "function"
    },
    {
      "inputs": [],
      "name": "ROLE_OWNER",
      "outputs": [
        {
          "internalType": "bytes32",
          "name": "",
          "type": "bytes32"
        }
      ],
      "stateMutability": "view",
      "type": "function"
    },
    {
      "inputs": [
        {
          "internalType": "bytes32",
          "name": "role",
          "type": "bytes32"
        }
      ],
      "name": "getRoleAdmin",
      "outputs": [
        {
          "internalType": "bytes32",
          "name": "",
          "type": "bytes32"
        }
      ],
      "stateMutability": "view",
      "type": "function"
    },
    {
      "inputs": [
        {
          "internalType": "bytes32",
          "name": "role",
          "type": "bytes32"
        },
        {
          "internalType": "uint256",
          "name": "index",
          "type": "uint256"
        }
      ],
      "name": "getRoleMember",
      "outputs": [
        {
          "internalType": "address",
          "name": "",
          "type": "address"
        }
      ],
      "stateMutability": "view",
      "type": "function"
    },
    {
      "inputs": [
        {
          "internalType": "bytes32",
          "name": "role",
          "type": "bytes32"
        }
      ],
      "name": "getRoleMemberCount",
      "outputs": [
        {
          "internalType": "uint256",
          "name": "",
          "type": "uint256"
        }
      ],
      "stateMutability": "view",
      "type": "function"
    },
    {
      "inputs": [
        {
          "internalType": "bytes32",
          "name": "role",
          "type": "bytes32"
        },
        {
          "internalType": "address",
          "name": "account",
          "type": "address"
        }
      ],
      "name": "grantRole",
      "outputs": [],
      "stateMutability": "nonpayable",
      "type": "function"
    },
    {
      "inputs": [
        {
          "internalType": "bytes32",
          "name": "role",
          "type": "bytes32"
        },
        {
          "internalType": "address",
          "name": "account",
          "type": "address"
        }
      ],
      "name": "hasRole",
      "outputs": [
        {
          "internalType": "bool",
          "name": "",
          "type": "bool"
        }
      ],
      "stateMutability": "view",
      "type": "function"
    },
    {
      "inputs": [
        {
          "internalType": "uint256",
          "name": "",
          "type": "uint256"
        }
      ],
      "name": "poolsArray",
      "outputs": [
        {
          "internalType": "address",
          "name": "",
          "type": "address"
        }
      ],
      "stateMutability": "view",
      "type": "function"
    },
    {
      "inputs": [
        {
          "internalType": "bytes32",
          "name": "role",
          "type": "bytes32"
        },
        {
          "internalType": "address",
          "name": "account",
          "type": "address"
        }
      ],
      "name": "renounceRole",
      "outputs": [],
      "stateMutability": "nonpayable",
      "type": "function"
    },
    {
      "inputs": [
        {
          "internalType": "bytes32",
          "name": "role",
          "type": "bytes32"
        },
        {
          "internalType": "address",
          "name": "account",
          "type": "address"
        }
      ],
      "name": "revokeRole",
      "outputs": [],
      "stateMutability": "nonpayable",
      "type": "function"
    },
    {
      "inputs": [
        {
          "internalType": "bytes4",
          "name": "interfaceId",
          "type": "bytes4"
        }
      ],
      "name": "supportsInterface",
      "outputs": [
        {
          "internalType": "bool",
          "name": "",
          "type": "bool"
        }
      ],
      "stateMutability": "view",
      "type": "function"
    },
    {
      "inputs": [],
      "name": "getPools",
      "outputs": [
        {
          "internalType": "address[]",
          "name": "",
          "type": "address[]"
        }
      ],
      "stateMutability": "view",
      "type": "function"
    },
    {
      "inputs": [
        {
          "internalType": "address",
          "name": "tokenA",
          "type": "address"
        },
        {
          "internalType": "address",
          "name": "tokenB",
          "type": "address"
        }
      ],
      "name": "getPoolByTokens",
      "outputs": [
        {
          "internalType": "address",
          "name": "",
          "type": "address"
        }
      ],
      "stateMutability": "view",
      "type": "function"
    },
    {
      "inputs": [
        {
          "internalType": "address",
          "name": "account",
          "type": "address"
        }
      ],
      "name": "isOwner",
      "outputs": [
        {
          "internalType": "bool",
          "name": "",
          "type": "bool"
        }
      ],
      "stateMutability": "view",
      "type": "function"
    },
    {
      "inputs": [
        {
          "internalType": "address",
          "name": "account",
          "type": "address"
        }
      ],
      "name": "addOwner",
      "outputs": [],
      "stateMutability": "nonpayable",
      "type": "function"
    },
    {
      "inputs": [],
      "name": "renounceOwner",
      "outputs": [],
      "stateMutability": "nonpayable",
      "type": "function"
    },
    {
      "inputs": [
        {
          "internalType": "address",
          "name": "tokenA",
          "type": "address"
        },
        {
          "internalType": "address",
          "name": "tokenB",
          "type": "address"
        }
      ],
      "name": "createPool",
      "outputs": [],
      "stateMutability": "nonpayable",
      "type": "function"
    }
  ],
  "bytecode": "0x60806040523480156200001157600080fd5b506200003e7f6270edb7c868f86fda4adedba75108201087268ea345934db8bad688e1feb91b3362000044565b62000182565b6200005082826200006f565b60008281526001602052604090206200006a908262000110565b505050565b6000828152602081815260408083206001600160a01b038516845290915290205460ff166200010c576000828152602081815260408083206001600160a01b03851684529091529020805460ff19166001179055620000cb3390565b6001600160a01b0316816001600160a01b0316837f2f8788117e7eff1d82e926ec794901d17c78024a50270940304540a733656f0d60405160405180910390a45b5050565b600062000127836001600160a01b03841662000130565b90505b92915050565b600081815260018301602052604081205462000179575081546001818101845560008481526020808220909301849055845484825282860190935260409020919091556200012a565b5060006200012a565b61381080620001926000396000f3fe60806040523480156200001157600080fd5b5060043610620001325760003560e01c80637065cb4811620000c0578063a217fddf116200008b578063ca15c873116200006e578063ca15c8731462000306578063d547741f146200031d578063e3433615146200033457600080fd5b8063a217fddf14620002e6578063aa3185b914620002ef57600080fd5b80637065cb4814620002565780638ad682af146200026d5780639010d07c146200029557806391d1485414620002ac57600080fd5b80632f2ff15d11620001015780632f2ff15d14620001f85780632f54bf6e146200020f57806336568abe1462000226578063673a2a1f146200023d57600080fd5b806301ffc9a714620001375780631030914e1462000163578063248a9ca314620001b757806328c23a4514620001ec575b600080fd5b6200014e62000148366004620011b7565b6200034b565b60405190151581526020015b60405180910390f35b6200019e6200017436600462001218565b6001600160a01b039182166000908152600260209081526040808320938516835292905220541690565b6040516001600160a01b0390911681526020016200015a565b620001dd620001c836600462001250565b60009081526020819052604090206001015490565b6040519081526020016200015a565b620001f6620003aa565b005b620001f6620002093660046200126a565b6200052a565b6200014e6200022036600462001290565b62000558565b620001f6620002373660046200126a565b62000599565b6200024762000629565b6040516200015a9190620012ae565b620001f66200026736600462001290565b6200068d565b620001dd7f6270edb7c868f86fda4adedba75108201087268ea345934db8bad688e1feb91b81565b6200019e620002a6366004620012fd565b62000797565b6200014e620002bd3660046200126a565b6000918252602082815260408084206001600160a01b0393909316845291905290205460ff1690565b620001dd600081565b6200019e6200030036600462001250565b620007b8565b620001dd6200031736600462001250565b620007e3565b620001f66200032e3660046200126a565b620007fc565b620001f66200034536600462001218565b62000825565b60007fffffffff0000000000000000000000000000000000000000000000000000000082167f5a05180f000000000000000000000000000000000000000000000000000000001480620003a45750620003a48262000af5565b92915050565b6040516317aa5fb760e11b81523360048201523090632f54bf6e90602401602060405180830381865afa158015620003e6573d6000803e3d6000fd5b505050506040513d601f19601f820116820180604052508101906200040c919062001320565b6200044d5760405162461bcd60e51b815260206004820152600c60248201526b1d5b985d5d1a1bdc9a5e995960a21b60448201526064015b60405180910390fd5b60016200047a7f6270edb7c868f86fda4adedba75108201087268ea345934db8bad688e1feb91b620007e3565b11620004c95760405162461bcd60e51b815260206004820152600a60248201527f6f6e6c792d6f776e657200000000000000000000000000000000000000000000604482015260640162000444565b620004f57f6270edb7c868f86fda4adedba75108201087268ea345934db8bad688e1feb91b3362000b8e565b6040513381527f58619076adf5bb0943d100ef88d52d7c3fd691b19d3a9071b555b651fbf418da9060200160405180910390a1565b600082815260208190526040902060010154620005478162000bb4565b62000553838362000bc3565b505050565b6001600160a01b03811660009081527f1299b6a38f4cd1a4aadffdac39262d30244a01098753e138ed68abcfd87ee481602052604081205460ff16620003a4565b6001600160a01b0381163314620006195760405162461bcd60e51b815260206004820152602f60248201527f416363657373436f6e74726f6c3a2063616e206f6e6c792072656e6f756e636560448201527f20726f6c657320666f722073656c660000000000000000000000000000000000606482015260840162000444565b62000625828262000b8e565b5050565b606060038054806020026020016040519081016040528092919081815260200182805480156200068357602002820191906000526020600020905b81546001600160a01b0316815260019091019060200180831162000664575b5050505050905090565b6040516317aa5fb760e11b81523360048201523090632f54bf6e90602401602060405180830381865afa158015620006c9573d6000803e3d6000fd5b505050506040513d601f19601f82011682018060405250810190620006ef919062001320565b6200072c5760405162461bcd60e51b815260206004820152600c60248201526b1d5b985d5d1a1bdc9a5e995960a21b604482015260640162000444565b620007587f6270edb7c868f86fda4adedba75108201087268ea345934db8bad688e1feb91b8262000bc3565b6040516001600160a01b03821681527f994a936646fe87ffe4f1e469d3d6aa417d6b855598397f323de5b449f765f0c39060200160405180910390a150565b6000828152600160205260408120620007b1908362000be9565b9392505050565b60038181548110620007c957600080fd5b6000918252602090912001546001600160a01b0316905081565b6000818152600160205260408120620003a49062000bf7565b600082815260208190526040902060010154620008198162000bb4565b62000553838362000b8e565b6040516317aa5fb760e11b81523360048201523090632f54bf6e90602401602060405180830381865afa15801562000861573d6000803e3d6000fd5b505050506040513d601f19601f8201168201806040525081019062000887919062001320565b620008c45760405162461bcd60e51b815260206004820152600c60248201526b1d5b985d5d1a1bdc9a5e995960a21b604482015260640162000444565b6001600160a01b0382811660009081526002602090815260408083208585168452909152902054161580156200091f57506001600160a01b038181166000908152600260209081526040808320868516845290915290205416155b6200096d5760405162461bcd60e51b815260206004820152600e60248201527f616c72656164792d657869737473000000000000000000000000000000000000604482015260640162000444565b600082826040516200097f90620011a9565b6001600160a01b039283168152911660208201526080604082018190526018908201527f5377617061726f6f204c697175696469747920546f6b656e000000000000000060a082015260c0606082018190526002908201527f4c5000000000000000000000000000000000000000000000000000000000000060e082015261010001604051809103906000f08015801562000a1e573d6000803e3d6000fd5b506001600160a01b03848116600081815260026020908152604080832088861680855290835281842080547fffffffffffffffffffffffff00000000000000000000000000000000000000009081169789169788179091556003805460018101825595527fc2575a0e9e593c00f959f8c92f12db2869c3395a3b0502d05e2516446f71f85b90940180549094168617909355805194855290840192909252908201529091507f4c61bab17e59e06eb29c0659ba5f68dc5bc003d57587a7280d98d532d2bf312a9060600160405180910390a1505050565b60007fffffffff0000000000000000000000000000000000000000000000000000000082167f7965db0b000000000000000000000000000000000000000000000000000000001480620003a457507f01ffc9a7000000000000000000000000000000000000000000000000000000007fffffffff00000000000000000000000000000000000000000000000000000000831614620003a4565b62000b9a828262000c02565b600082815260016020526040902062000553908262000c82565b62000bc0813362000c99565b50565b62000bcf828262000d15565b600082815260016020526040902062000553908262000db5565b6000620007b1838362000dcc565b6000620003a4825490565b6000828152602081815260408083206001600160a01b038516845290915290205460ff161562000625576000828152602081815260408083206001600160a01b0385168085529252808320805460ff1916905551339285917ff6391f5c32d9c69d2a47ea670b442974b53935d1edc7fd64eb21e047a839171b9190a45050565b6000620007b1836001600160a01b03841662000df9565b6000828152602081815260408083206001600160a01b038516845290915290205460ff16620006255762000ccd8162000efd565b62000cda83602062000f10565b60405160200162000ced9291906200136a565b60408051601f198184030181529082905262461bcd60e51b82526200044491600401620013ef565b6000828152602081815260408083206001600160a01b038516845290915290205460ff1662000625576000828152602081815260408083206001600160a01b03851684529091529020805460ff1916600117905562000d713390565b6001600160a01b0316816001600160a01b0316837f2f8788117e7eff1d82e926ec794901d17c78024a50270940304540a733656f0d60405160405180910390a45050565b6000620007b1836001600160a01b03841662001157565b600082600001828154811062000de65762000de662001424565b9060005260206000200154905092915050565b6000818152600183016020526040812054801562000ef257600062000e2060018362001450565b855490915060009062000e369060019062001450565b905081811462000ea257600086600001828154811062000e5a5762000e5a62001424565b906000526020600020015490508087600001848154811062000e805762000e8062001424565b6000918252602080832090910192909255918252600188019052604090208390555b855486908062000eb65762000eb662001466565b600190038181906000526020600020016000905590558560010160008681526020019081526020016000206000905560019350505050620003a4565b6000915050620003a4565b6060620003a46001600160a01b03831660145b6060600062000f218360026200147c565b62000f2e90600262001496565b67ffffffffffffffff81111562000f495762000f49620014ac565b6040519080825280601f01601f19166020018201604052801562000f74576020820181803683370190505b5090507f30000000000000000000000000000000000000000000000000000000000000008160008151811062000fae5762000fae62001424565b60200101907effffffffffffffffffffffffffffffffffffffffffffffffffffffffffffff1916908160001a9053507f78000000000000000000000000000000000000000000000000000000000000008160018151811062001014576200101462001424565b60200101907effffffffffffffffffffffffffffffffffffffffffffffffffffffffffffff1916908160001a9053506000620010528460026200147c565b6200105f90600162001496565b90505b600181111562001106577f303132333435363738396162636465660000000000000000000000000000000085600f1660108110620010a457620010a462001424565b1a60f81b828281518110620010bd57620010bd62001424565b60200101907effffffffffffffffffffffffffffffffffffffffffffffffffffffffffffff1916908160001a90535060049490941c93620010fe81620014c2565b905062001062565b508315620007b15760405162461bcd60e51b815260206004820181905260248201527f537472696e67733a20686578206c656e67746820696e73756666696369656e74604482015260640162000444565b6000818152600183016020526040812054620011a057508154600181810184556000848152602080822090930184905584548482528286019093526040902091909155620003a4565b506000620003a4565b6122fe80620014dd83390190565b600060208284031215620011ca57600080fd5b81357fffffffff0000000000000000000000000000000000000000000000000000000081168114620007b157600080fd5b80356001600160a01b03811681146200121357600080fd5b919050565b600080604083850312156200122c57600080fd5b6200123783620011fb565b91506200124760208401620011fb565b90509250929050565b6000602082840312156200126357600080fd5b5035919050565b600080604083850312156200127e57600080fd5b823591506200124760208401620011fb565b600060208284031215620012a357600080fd5b620007b182620011fb565b6020808252825182820181905260009190848201906040850190845b81811015620012f15783516001600160a01b031683529284019291840191600101620012ca565b50909695505050505050565b600080604083850312156200131157600080fd5b50508035926020909101359150565b6000602082840312156200133357600080fd5b81518015158114620007b157600080fd5b60005b838110156200136157818101518382015260200162001347565b50506000910152565b7f416363657373436f6e74726f6c3a206163636f756e7420000000000000000000815260008351620013a481601785016020880162001344565b7f206973206d697373696e6720726f6c65200000000000000000000000000000006017918401918201528351620013e381602884016020880162001344565b01602801949350505050565b60208152600082518060208401526200141081604085016020870162001344565b601f01601f19169190910160400192915050565b634e487b7160e01b600052603260045260246000fd5b634e487b7160e01b600052601160045260246000fd5b81810381811115620003a457620003a46200143a565b634e487b7160e01b600052603160045260246000fd5b8082028115828204841417620003a457620003a46200143a565b80820180821115620003a457620003a46200143a565b634e487b7160e01b600052604160045260246000fd5b600081620014d457620014d46200143a565b50600019019056fe60c0604052600060085560006009556000600a553480156200002057600080fd5b50604051620022fe380380620022fe8339810160408190526200004391620002c1565b8383838381816003620000578382620003e0565b506004620000668282620003e0565b5050506001600160a01b039384166080525050811660a0528416158015906200009757506001600160a01b03831615155b620000f55760405162461bcd60e51b815260206004820152602360248201527f546f6b656e732063616e6e6f74206861766520746865207a65726f206164647260448201526265737360e81b60648201526084015b60405180910390fd5b6001600160a01b0384163b151580156200011857506001600160a01b0383163b15155b620001665760405162461bcd60e51b815260206004820152601860248201527f546f6b656e73206d75737420626520636f6e74726163747300000000000000006044820152606401620000ec565b826001600160a01b0316846001600160a01b031603620001d55760405162461bcd60e51b8152602060048201526024808201527f546f6b656e41206d75737420626520646966666572656e742066726f6d20546f60448201526335b2b72160e11b6064820152608401620000ec565b50505050620004ac565b80516001600160a01b0381168114620001f757600080fd5b919050565b634e487b7160e01b600052604160045260246000fd5b600082601f8301126200022457600080fd5b81516001600160401b0380821115620002415762000241620001fc565b604051601f8301601f19908116603f011681019082821181831017156200026c576200026c620001fc565b816040528381526020925086838588010111156200028957600080fd5b600091505b83821015620002ad57858201830151818301840152908201906200028e565b600093810190920192909252949350505050565b60008060008060808587031215620002d857600080fd5b620002e385620001df565b9350620002f360208601620001df565b60408601519093506001600160401b03808211156200031157600080fd5b6200031f8883890162000212565b935060608701519150808211156200033657600080fd5b50620003458782880162000212565b91505092959194509250565b600181811c908216806200036657607f821691505b6020821081036200038757634e487b7160e01b600052602260045260246000fd5b50919050565b601f821115620003db57600081815260208120601f850160051c81016020861015620003b65750805b601f850160051c820191505b81811015620003d757828155600101620003c2565b5050505b505050565b81516001600160401b03811115620003fc57620003fc620001fc565b62000414816200040d845462000351565b846200038d565b602080601f8311600181146200044c5760008415620004335750858301515b600019600386901b1c1916600185901b178555620003d7565b600085815260208120601f198616915b828110156200047d578886015182559484019460019091019084016200045c565b50858210156200049c5787850151600019600388901b60f8161c191681555b5050505050600190811b01905550565b60805160a051611db56200054960003960008181610395015281816105a90152818161084701528181610ab701528181610cd301528181610dbb0152818161100801526110a10152600081816103700152818161051f015281816107af01528181610a2501528181610c9801528181610d5c01528181610d9501528181610de101528181610e2a01528181610fa8015261106d0152611db56000f3fe608060405234801561001057600080fd5b50600436106101975760003560e01c806395d89b41116100e3578063d3986f081161008c578063ed442e1411610066578063ed442e141461033e578063ee39e7a01461035a578063ee8c24b81461036257600080fd5b8063d3986f08146102e9578063dc5fa6c5146102fc578063dd62ed3e1461030557600080fd5b8063a457c2d7116100bd578063a457c2d7146102bb578063a9059cbb146102ce578063c57981b5146102e157600080fd5b806395d89b41146102985780639c8f9f23146102a0578063a0331c44146102b357600080fd5b806323b872dd1161014557806344b4d2791161011f57806344b4d2791461025257806370a082311461025c5780637a16af7f1461028557600080fd5b806323b872dd1461021d578063313ce56714610230578063395093511461023f57600080fd5b8063095ea7b311610176578063095ea7b3146101e957806318160ddd1461020c57806319e36f3b1461021457600080fd5b8062868bc51461019c57806306fdde03146101b85780630902f1ac146101cd575b600080fd5b6101a561271081565b6040519081526020015b60405180910390f35b6101c06103c0565b6040516101af9190611b1c565b6008546009545b604080519283526020830191909152016101af565b6101fc6101f7366004611b86565b610452565b60405190151581526020016101af565b6002546101a5565b6101a560095481565b6101fc61022b366004611bb0565b61046c565b604051601281526020016101af565b6101fc61024d366004611b86565b610490565b61025a6104cf565b005b6101a561026a366004611bec565b6001600160a01b031660009081526020819052604090205490565b61025a610293366004611c07565b610623565b6101c061094e565b61025a6102ae366004611c29565b61095d565b6101d4610bb5565b6101fc6102c9366004611b86565b610bde565b6101fc6102dc366004611b86565b610c88565b6101a5601e81565b61025a6102f7366004611c42565b610c96565b6101a560085481565b6101a5610313366004611c6e565b6001600160a01b03918216600090815260016020908152604080832093909416825291909152205490565b33600090815260076020526040902080546001909101546101d4565b600a546101a5565b604080516001600160a01b037f0000000000000000000000000000000000000000000000000000000000000000811682527f0000000000000000000000000000000000000000000000000000000000000000166020820152016101af565b6060600380546103cf90611c98565b80601f01602080910402602001604051908101604052809291908181526020018280546103fb90611c98565b80156104485780601f1061041d57610100808354040283529160200191610448565b820191906000526020600020905b81548152906001019060200180831161042b57829003601f168201915b5050505050905090565b600033610460818585611143565b60019150505b92915050565b60003361047a85828561129b565b61048585858561132d565b506001949350505050565b3360008181526001602090815260408083206001600160a01b038716845290915281205490919061046090829086906104ca908790611ce8565b611143565b6104d833611525565b3360008181526007602052604080822080546001820180549285905593909355905163a9059cbb60e01b815260048101939093526024830182905290916001600160a01b037f0000000000000000000000000000000000000000000000000000000000000000169063a9059cbb906044016020604051808303816000875af1158015610568573d6000803e3d6000fd5b505050506040513d601f19601f8201168201806040525081019061058c9190611cfb565b5060405163a9059cbb60e01b8152336004820152602481018290527f00000000000000000000000000000000000000000000000000000000000000006001600160a01b03169063a9059cbb906044016020604051808303816000875af11580156105fa573d6000803e3d6000fd5b505050506040513d601f19601f8201168201806040525081019061061e9190611cfb565b505050565b6000821180156106335750600081115b6106aa5760405162461bcd60e51b815260206004820152602760248201527f4e756d626572206f6620746f6b656e73206d757374206265206772656174657260448201527f207468616e20300000000000000000000000000000000000000000000000000060648201526084015b60405180910390fd5b6000806106b660025490565b111561076e57826009546106ca9190611d1d565b826008546106d89190611d1d565b146107255760405162461bcd60e51b815260206004820152601060248201527f57726f6e672070726f706f7274696f6e0000000000000000000000000000000060448201526064016106a1565b61076760085461073460025490565b61073e9086611d1d565b6107489190611d4a565b6009546002546107589086611d1d565b6107629190611d4a565b6116b0565b9050610783565b61078061077b8385611d1d565b6116c8565b90505b61078d33826117b0565b6040516323b872dd60e01b8152336004820152306024820152604481018490527f00000000000000000000000000000000000000000000000000000000000000006001600160a01b0316906323b872dd906064016020604051808303816000875af1158015610800573d6000803e3d6000fd5b505050506040513d601f19601f820116820180604052508101906108249190611cfb565b506040516323b872dd60e01b8152336004820152306024820152604481018390527f00000000000000000000000000000000000000000000000000000000000000006001600160a01b0316906323b872dd906064016020604051808303816000875af1158015610898573d6000803e3d6000fd5b505050506040513d601f19601f820116820180604052508101906108bc9190611cfb565b5082600860008282546108cf9190611ce8565b9250508190555081600960008282546108e89190611ce8565b90915550506009546008546108fd9190611d1d565b600a556040805133815260208101859052908101839052606081018290527f3bca7014f4c0ccc8016338c79f4c00e82068dbadaf4f01ca5449040fdd39f500906080015b60405180910390a1505050565b6060600480546103cf90611c98565b600061096860025490565b116109b55760405162461bcd60e51b815260206004820152600c60248201527f4e6f206c6971756964697479000000000000000000000000000000000000000060448201526064016106a1565b60006109c060025490565b826008546109ce9190611d1d565b6109d89190611d4a565b905060006109e560025490565b836009546109f39190611d1d565b6109fd9190611d4a565b9050610a09338461187b565b60405163a9059cbb60e01b8152336004820152602481018390527f00000000000000000000000000000000000000000000000000000000000000006001600160a01b03169063a9059cbb906044016020604051808303816000875af1158015610a76573d6000803e3d6000fd5b505050506040513d601f19601f82011682018060405250810190610a9a9190611cfb565b5060405163a9059cbb60e01b8152336004820152602481018290527f00000000000000000000000000000000000000000000000000000000000000006001600160a01b03169063a9059cbb906044016020604051808303816000875af1158015610b08573d6000803e3d6000fd5b505050506040513d601f19601f82011682018060405250810190610b2c9190611cfb565b508160086000828254610b3f9190611d6c565b925050819055508060096000828254610b589190611d6c565b9091555050600954600854610b6d9190611d1d565b600a556040805133815260208101859052908101839052606081018290527f1dc8bb69df2b8e91fbdcbfcf93d951b3f0000f085a95fe3f7946d6161439245d90608001610941565b600080610bc133611525565b505033600090815260076020526040902080546001909101549091565b3360008181526001602090815260408083206001600160a01b038716845290915281205490919083811015610c7b5760405162461bcd60e51b815260206004820152602560248201527f45524332303a2064656372656173656420616c6c6f77616e63652062656c6f7760448201527f207a65726f00000000000000000000000000000000000000000000000000000060648201526084016106a1565b6104858286868403611143565b60003361046081858561132d565b7f00000000000000000000000000000000000000000000000000000000000000006001600160a01b0316816001600160a01b03161480610d0757507f00000000000000000000000000000000000000000000000000000000000000006001600160a01b0316816001600160a01b0316145b610d535760405162461bcd60e51b815260206004820152601360248201527f546f6b656e206e6f7420737570706f727465640000000000000000000000000060448201526064016106a1565b600081905060007f00000000000000000000000000000000000000000000000000000000000000006001600160a01b0316826001600160a01b031614610db9577f0000000000000000000000000000000000000000000000000000000000000000610ddb565b7f00000000000000000000000000000000000000000000000000000000000000005b905060007f00000000000000000000000000000000000000000000000000000000000000006001600160a01b0316836001600160a01b031614610e2057600954610e24565b6008545b905060007f00000000000000000000000000000000000000000000000000000000000000006001600160a01b0316846001600160a01b031614610e6957600854610e6d565b6009545b90506000612710610e7f601e89611d1d565b610e899190611d4a565b90506000610e978289611d6c565b90506000610ea58286611ce8565b610eaf8386611d1d565b610eb99190611d4a565b6040516323b872dd60e01b8152336004820152306024820152604481018b90529091506001600160a01b038816906323b872dd906064016020604051808303816000875af1158015610f0f573d6000803e3d6000fd5b505050506040513d601f19601f82011682018060405250810190610f339190611cfb565b5060405163a9059cbb60e01b8152336004820152602481018290526001600160a01b0387169063a9059cbb906044016020604051808303816000875af1158015610f81573d6000803e3d6000fd5b505050506040513d601f19601f82011682018060405250810190610fa59190611cfb565b507f00000000000000000000000000000000000000000000000000000000000000006001600160a01b0316876001600160a01b031614610ff25780600854610fed9190611d6c565b611000565b816008546110009190611ce8565b6008819055507f00000000000000000000000000000000000000000000000000000000000000006001600160a01b0316876001600160a01b031614611052578060095461104d9190611d6c565b611060565b816009546110609190611ce8565b6009556001600160a01b037f000000000000000000000000000000000000000000000000000000000000000081169088160361109f5761109f836119f0565b7f00000000000000000000000000000000000000000000000000000000000000006001600160a01b0316876001600160a01b0316036110e1576110e183611a28565b60408051338152602081018b90526001600160a01b0389811682840152606082018490528816608082015290517f24043855bfbfea0ccea141e5a73d7116bf0bfe083ea900a791f4b407ff03e5259181900360a00190a1505050505050505050565b6001600160a01b0383166111be5760405162461bcd60e51b8152602060048201526024808201527f45524332303a20617070726f76652066726f6d20746865207a65726f2061646460448201527f726573730000000000000000000000000000000000000000000000000000000060648201526084016106a1565b6001600160a01b03821661123a5760405162461bcd60e51b815260206004820152602260248201527f45524332303a20617070726f766520746f20746865207a65726f20616464726560448201527f737300000000000000000000000000000000000000000000000000000000000060648201526084016106a1565b6001600160a01b0383811660008181526001602090815260408083209487168084529482529182902085905590518481527f8c5be1e5ebec7d5bd14f71427d1e84f3dd0314c0f7b2291e5b200ac8c7c3b925910160405180910390a3505050565b6001600160a01b038381166000908152600160209081526040808320938616835292905220546000198114611327578181101561131a5760405162461bcd60e51b815260206004820152601d60248201527f45524332303a20696e73756666696369656e7420616c6c6f77616e636500000060448201526064016106a1565b6113278484848403611143565b50505050565b6001600160a01b0383166113a95760405162461bcd60e51b815260206004820152602560248201527f45524332303a207472616e736665722066726f6d20746865207a65726f20616460448201527f647265737300000000000000000000000000000000000000000000000000000060648201526084016106a1565b6001600160a01b0382166114255760405162461bcd60e51b815260206004820152602360248201527f45524332303a207472616e7366657220746f20746865207a65726f206164647260448201527f657373000000000000000000000000000000000000000000000000000000000060648201526084016106a1565b611430838383611a58565b6001600160a01b038316600090815260208190526040902054818110156114bf5760405162461bcd60e51b815260206004820152602660248201527f45524332303a207472616e7366657220616d6f756e742065786365656473206260448201527f616c616e6365000000000000000000000000000000000000000000000000000060648201526084016106a1565b6001600160a01b03848116600081815260208181526040808320878703905593871680835291849020805487019055925185815290927fddf252ad1be2c89b69c2b068fc378daa952ba7f163c4a11628f55a4df523b3ef910160405180910390a3611327565b6001600160a01b03811660009081526007602052604081206002015460055461154e9190611d6c565b6001600160a01b038316600090815260076020526040812060030154600654929350909161157c9190611d6c565b90506000678ac7230489e80000836115a9866001600160a01b031660009081526020819052604090205490565b6115b39190611d1d565b6115bd9190611d4a565b90506000678ac7230489e80000836115ea876001600160a01b031660009081526020819052604090205490565b6115f49190611d1d565b6115fe9190611d4a565b90508115611653576001600160a01b0385166000908152600760205260408120805484929061162e908490611ce8565b90915550506005546001600160a01b0386166000908152600760205260409020600201555b80156116a9576001600160a01b03851660009081526007602052604081206001018054839290611684908490611ce8565b90915550506006546001600160a01b0386166000908152600760205260409020600301555b5050505050565b60008183106116bf57816116c1565b825b9392505050565b6000816000036116da57506000919050565b600060016116e784611a88565b901c6001901b9050600181848161170057611700611d34565b048201901c9050600181848161171857611718611d34565b048201901c9050600181848161173057611730611d34565b048201901c9050600181848161174857611748611d34565b048201901c9050600181848161176057611760611d34565b048201901c9050600181848161177857611778611d34565b048201901c9050600181848161179057611790611d34565b048201901c90506116c1818285816117aa576117aa611d34565b046116b0565b6001600160a01b0382166118065760405162461bcd60e51b815260206004820152601f60248201527f45524332303a206d696e7420746f20746865207a65726f20616464726573730060448201526064016106a1565b61181260008383611a58565b80600260008282546118249190611ce8565b90915550506001600160a01b038216600081815260208181526040808320805486019055518481527fddf252ad1be2c89b69c2b068fc378daa952ba7f163c4a11628f55a4df523b3ef910160405180910390a35050565b6001600160a01b0382166118f75760405162461bcd60e51b815260206004820152602160248201527f45524332303a206275726e2066726f6d20746865207a65726f2061646472657360448201527f730000000000000000000000000000000000000000000000000000000000000060648201526084016106a1565b61190382600083611a58565b6001600160a01b038216600090815260208190526040902054818110156119925760405162461bcd60e51b815260206004820152602260248201527f45524332303a206275726e20616d6f756e7420657863656564732062616c616e60448201527f636500000000000000000000000000000000000000000000000000000000000060648201526084016106a1565b6001600160a01b0383166000818152602081815260408083208686039055600280548790039055518581529192917fddf252ad1be2c89b69c2b068fc378daa952ba7f163c4a11628f55a4df523b3ef910160405180910390a3505050565b600254611a05678ac7230489e8000083611d1d565b611a0f9190611d4a565b60056000828254611a209190611ce8565b909155505050565b600254611a3d678ac7230489e8000083611d1d565b611a479190611d4a565b60066000828254611a209190611ce8565b6001600160a01b03831615611a7057611a7083611525565b6001600160a01b0382161561061e5761061e82611525565b600080608083901c15611a9d57608092831c92015b604083901c15611aaf57604092831c92015b602083901c15611ac157602092831c92015b601083901c15611ad357601092831c92015b600883901c15611ae557600892831c92015b600483901c15611af757600492831c92015b600283901c15611b0957600292831c92015b600183901c156104665760010192915050565b600060208083528351808285015260005b81811015611b4957858101830151858201604001528201611b2d565b506000604082860101526040601f19601f8301168501019250505092915050565b80356001600160a01b0381168114611b8157600080fd5b919050565b60008060408385031215611b9957600080fd5b611ba283611b6a565b946020939093013593505050565b600080600060608486031215611bc557600080fd5b611bce84611b6a565b9250611bdc60208501611b6a565b9150604084013590509250925092565b600060208284031215611bfe57600080fd5b6116c182611b6a565b60008060408385031215611c1a57600080fd5b50508035926020909101359150565b600060208284031215611c3b57600080fd5b5035919050565b60008060408385031215611c5557600080fd5b82359150611c6560208401611b6a565b90509250929050565b60008060408385031215611c8157600080fd5b611c8a83611b6a565b9150611c6560208401611b6a565b600181811c90821680611cac57607f821691505b602082108103611ccc57634e487b7160e01b600052602260045260246000fd5b50919050565b634e487b7160e01b600052601160045260246000fd5b8082018082111561046657610466611cd2565b600060208284031215611d0d57600080fd5b815180151581146116c157600080fd5b808202811582820484141761046657610466611cd2565b634e487b7160e01b600052601260045260246000fd5b600082611d6757634e487b7160e01b600052601260045260246000fd5b500490565b8181038181111561046657610466611cd256fea2646970667358221220b8f84da0b6eebb9f2ec47e8ba0ad77fd0ad5d0f50224f1259937f10b02ac236164736f6c63430008130033a2646970667358221220cb570819e0daabdc456d431583e6d59f7354d1c67a4f981f1bd5ab55ae7574c864736f6c63430008130033",
  "immutableReferences": {},
  "source": "// SPDX-License-Identifier: MIT\r\npragma solidity ^0.8.0;\r\n\r\nimport \"@openzeppelin/contracts/access/AccessControlEnumerable.sol\";\r\nimport \"./SwaparooPool.sol\";\r\n\r\ncontract SwaparooCore is AccessControlEnumerable {\r\n    bytes32 public constant ROLE_OWNER = keccak256(\"OWNER\");\r\n    mapping (address => mapping (address => address)) poolsMap; // (tokenA,tokenB) => pool\r\n    // Todo: change to (address,address) => SwaparooPool\r\n    address[] public poolsArray;\r\n\r\n    event OwnerAdded(address account);\r\n    event OwnerRemoved(address account);\r\n    event PoolAdded(address pool, address tokenA, address tokenB);\r\n    event PoolRemoved(address pool, address tokenA, address tokenB);\r\n\r\n    constructor() {\r\n        _grantRole(ROLE_OWNER, msg.sender);\r\n    }\r\n\r\n    modifier onlyRoleOwner() {\r\n        require(this.isOwner(msg.sender), \"unauthorized\");\r\n        _;\r\n    }\r\n\r\n    function getPools() external view returns(address[] memory) {\r\n        return poolsArray;\r\n    }\r\n\r\n    function getPoolByTokens(address tokenA, address tokenB) external view returns(address) {\r\n        return poolsMap[tokenA][tokenB];\r\n    }\r\n\r\n    function isOwner(address account) external view returns (bool) {\r\n        return hasRole(ROLE_OWNER, account);\r\n    }\r\n\r\n    function addOwner(address account) external onlyRoleOwner {\r\n        _grantRole(ROLE_OWNER, account);\r\n        emit OwnerAdded(account);\r\n    }\r\n\r\n    function renounceOwner() external onlyRoleOwner {\r\n        require(getRoleMemberCount(ROLE_OWNER) > 1, \"only-owner\");\r\n        _revokeRole(ROLE_OWNER, msg.sender);\r\n        emit OwnerRemoved(msg.sender);\r\n    }\r\n\r\n    function createPool(address tokenA, address tokenB) external onlyRoleOwner {\r\n        require(poolsMap[tokenA][tokenB] == address(0) && poolsMap[tokenB][tokenA] == address(0), \"already-exists\");\r\n\r\n        SwaparooPool pool = new SwaparooPool(tokenA, tokenB, \"Swaparoo Liquidity Token\", \"LP\");\r\n        poolsMap[tokenA][tokenB] = address(pool);\r\n        poolsArray.push(address(pool));\r\n\r\n        emit PoolAdded(address(pool), tokenA, tokenB);\r\n    }\r\n\r\n    /*\r\n    function removePool(address tokenA, address tokenB) external onlyRoleOwner {\r\n        require(poolsMap[tokenA][tokenB] != address(0) && poolsMap[tokenB][tokenA] != address(0), \"not-found\");\r\n\r\n        // find index of poolsArray\r\n        address poolAddress = poolsMap[tokenA][tokenB];\r\n        uint poolIndex = 0;\r\n        for(uint i = 0; i < poolsArray.length; i++) {\r\n            if(poolsArray[i] == poolAddress) {\r\n                poolIndex = i;\r\n                break;\r\n            }\r\n        }\r\n\r\n        // delete from array & mapping\r\n        poolsArray[poolIndex] = poolsArray[poolsArray.length-1];\r\n        poolsArray.pop();\r\n        delete poolsMap[tokenA][tokenB];\r\n        delete poolsMap[tokenB][tokenA];\r\n\r\n        emit PoolRemoved(poolAddress, tokenA, tokenB);\r\n    }\r\n    */\r\n}\r\n",
  "sourcePath": "C:\\Users\\lukas\\Documents\\git\\swaparoo\\smart-contracts\\contracts\\SwaparooCore.sol",
  "compiler": {
    "name": "solc",
    "version": "0.8.19+commit.7dd6d404.Emscripten.clang"
  },
  "schemaVersion": "3.4.13",
  "updatedAt": "2023-07-03T15:03:00.393Z",
  "devdoc": {
    "events": {
      "RoleAdminChanged(bytes32,bytes32,bytes32)": {
        "details": "Emitted when `newAdminRole` is set as ``role``'s admin role, replacing `previousAdminRole` `DEFAULT_ADMIN_ROLE` is the starting admin for all roles, despite {RoleAdminChanged} not being emitted signaling this. _Available since v3.1._"
      },
      "RoleGranted(bytes32,address,address)": {
        "details": "Emitted when `account` is granted `role`. `sender` is the account that originated the contract call, an admin role bearer except when using {AccessControl-_setupRole}."
      },
      "RoleRevoked(bytes32,address,address)": {
        "details": "Emitted when `account` is revoked `role`. `sender` is the account that originated the contract call:   - if using `revokeRole`, it is the admin role bearer   - if using `renounceRole`, it is the role bearer (i.e. `account`)"
      }
    },
    "kind": "dev",
    "methods": {
      "getRoleAdmin(bytes32)": {
        "details": "Returns the admin role that controls `role`. See {grantRole} and {revokeRole}. To change a role's admin, use {_setRoleAdmin}."
      },
      "getRoleMember(bytes32,uint256)": {
        "details": "Returns one of the accounts that have `role`. `index` must be a value between 0 and {getRoleMemberCount}, non-inclusive. Role bearers are not sorted in any particular way, and their ordering may change at any point. WARNING: When using {getRoleMember} and {getRoleMemberCount}, make sure you perform all queries on the same block. See the following https://forum.openzeppelin.com/t/iterating-over-elements-on-enumerableset-in-openzeppelin-contracts/2296[forum post] for more information."
      },
      "getRoleMemberCount(bytes32)": {
        "details": "Returns the number of accounts that have `role`. Can be used together with {getRoleMember} to enumerate all bearers of a role."
      },
      "grantRole(bytes32,address)": {
        "details": "Grants `role` to `account`. If `account` had not been already granted `role`, emits a {RoleGranted} event. Requirements: - the caller must have ``role``'s admin role. May emit a {RoleGranted} event."
      },
      "hasRole(bytes32,address)": {
        "details": "Returns `true` if `account` has been granted `role`."
      },
      "renounceRole(bytes32,address)": {
        "details": "Revokes `role` from the calling account. Roles are often managed via {grantRole} and {revokeRole}: this function's purpose is to provide a mechanism for accounts to lose their privileges if they are compromised (such as when a trusted device is misplaced). If the calling account had been revoked `role`, emits a {RoleRevoked} event. Requirements: - the caller must be `account`. May emit a {RoleRevoked} event."
      },
      "revokeRole(bytes32,address)": {
        "details": "Revokes `role` from `account`. If `account` had been granted `role`, emits a {RoleRevoked} event. Requirements: - the caller must have ``role``'s admin role. May emit a {RoleRevoked} event."
      },
      "supportsInterface(bytes4)": {
        "details": "See {IERC165-supportsInterface}."
      }
    },
    "version": 1
  },
  "userdoc": {
    "kind": "user",
    "methods": {},
    "version": 1
  }
}